:100000000C94A8010C94C5010C94C5010C94391BE7
:100010000C94C5010C94C5010C94C5010C94C50148
:100020000C94C5010C94C5010C94F0170C94D718CE
:100030000C94540C0C94C5010C94C5010C94C5018E
:100040000C94C5010C94C5010C94C5010C94C50118
:100050000C94C5010C94CC170C94C5010C94C501EB
:100060000C94C5010C94C5010C94C5010C94C501F8
:100070000C94C5010C94C5010C94C5010C94C501E8
:100080000C94C5010C94C5010C94C5010C94C501D8
:100090000C94C5010C94C5010C94C5010C94C501C8
:1000A0000C94C5010C94C5010C94C50100AF00AEC1
:1000B00005010906A101050719E029E71500250139
:1000C00095087501810295017508810105071900E0
:1000D00029FF150026FF00950675088100050819FF
:1000E00001290515002501950575019102950175F8
:1000F000039101C009022200010100A0FA090400D5
:10010000000103010100092111010001224400073F
:100110000581030800011201000200000008D80454
:100120002DEB0001010200010E034C0069006C0080
:10013000790035003800000010036C0069006C0085
:10014000690075006D00730000000403090400DA03
:100150000281FFD9F1DB20A4A62EAF00A0C0D300FE
:1001600000A1C8D30000AED580A81F408D14200088
:1001700029001E021F022002210222022B0014006D
:100180001A00080015001700E1000400160007001F
:1001900009000A00E0001D001B0006001900050010
:1001A0000000E200E30021522C004C002D02270247
:1001B00026022502240223023000130012000C0044
:1001C00018001C0032002E000F000E000D000B0066
:1001D000E500380037003600100011000000E6008E
:1001E0006352225228002A0035001E001F00200002
:1001F000210022003A003B003C003D003E003F0051
:10020000E1003900460049004A004B00E000470089
:1002100048004C004D004E000000E200E300215277
:100220002C004C0064002700260025002400230039
:10023000450044004300420041004000000000002F
:100240004F00520051005000E50000000000340053
:1002500033002F000000E6006352225228002A00DB
:10026000000000000000000000000000000000008E
:100270000000A90000000000E100AC00AD00AE00ED
:10028000AB000000E00000000000AA000000000039
:100290000000E200E30021522C004C00297827786E
:1002A00025782378217820782A7828782678247869
:1002B000227800000000000031782F782D782B780C
:1002C000E5000000337830782E782C780000E600C6
:1002D0006352225228002A0029001E001F0020001D
:1002E000210022002B00000000005200000000004E
:1002F000E1000000500051004F000000E00000004D
:1003000000000000000000000000E200E3000052D6
:100310002C004C00000027002600250024002300AC
:100320000000130012000C0018001C000000000068
:100330000F000E000D000B00E500000000000000A3
:10034000100011000000E6000052005228002A00B0
:1003500011241FBECFEFDAE0DEBFCDBF11E0A0E079
:10036000B1E0E4E8FAE302C005900D92A434B107CD
:10037000D9F724E0A4E4B1E001C01D92AB35B20787
:10038000E1F70E9481140C940D1D0C9400009093D1
:100390001304809312040895909315048093140419
:1003A000089521E030E002C0220F331F8A95E2F762
:1003B0008091140490911504822B932B0E94CC0100
:1003C000089521E030E002C0220F331F8A95E2F742
:1003D00020953095809114049091150482239323E5
:1003E0000E94CC0108959A3090F5863080F5E82F70
:1003F000F0E086E0989FE00DF11D11248E2F8770AC
:1004000041E001C0440F8A95EAF783E0F695E7954D
:100410008A95E1F7EE0FFF1FEE0FFF1FE351FC4F30
:1004200020E030E070E05191DF01CB01022E02C0EC
:10043000969587950A94E2F78170819585278423A4
:1004400085278E932F5F3F4F2430310561F7089544
:100450009A3078F5863068F5E82FF0E086E0989FCE
:10046000E00DF11D11249E2F977083E0F695E7951E
:100470008A95E1F7EE0FFF1FEE0FFF1FE351FC4FD0
:1004800040E050E080E0219130E0092E02C0369536
:1004900027950A94E2F721703327042E01C0220F1A
:1004A0000A94EAF7822B4F5F5F4F4430510559F7AA
:1004B000089580E0089580911B0490911A04981388
:1004C00001C008958F5F8770FACF909116048095D0
:1004D000892380931604282F277021110DC08917B6
:1004E00059F09091180492FF07C0869586958695DD
:1004F0000E94E101109216040895982F9095809122
:100500000F04892380930F0408957A30B8F466307D
:10051000A8F48430B0F4E62FF0E096E0799FE00D87
:10052000F11D11249CE3899FE00DF11D1124EE0FB4
:10053000FF1FE059FE4F85919591089580E090E06E
:10054000089581E0FCCF9C01803E910509F448C0EC
:10055000D8F48133910509F47DC048F489329105BE
:1005600009F46DC08A9709F47CC0C90108958933E4
:10057000910551F18238910539F1C597B1F7809114
:10058000170485FFF2CF29C0843E910509F447C0C6
:1005900048F4823E910599F1833E9105A9F121EE3F
:1005A00030E0E3CF863E910509F444C0873E9105D3
:1005B000E1F68091170483FD61C09091180491FFCA
:1005C0002BC024EE30E0D1CF8091170483708111CD
:1005D00052C08091180483FFC8CF29E230E0C5CF14
:1005E0008091170480FD33C09091180490FFBDCF17
:1005F00023EE30E084FFB9CF20E030E0B6CF809129
:10060000170482FDF5CFB1CF8091170482FD30C071
:100610009091180490FD2FC084FFA7CFEDCF80915B
:10062000180481FFA2CF8091170427EE30E084FDEB
:10063000E3CF9BCF8091170483FDF7CF96CF8091B6
:10064000170485FD1EC08091180483FF8ECF29E317
:1006500030E08BCF8091170486FF87CF2AE230E00D
:1006600084CF8091170486FF80CF21E330E07DCFD7
:1006700022EE30E07ACF20EE30E077CF26EE30E089
:1006800074CF25E330E071CF9091170492FF10C032
:1006900041E0282F2471243009F040E031E0282F78
:1006A0002871283009F030E0431711F02CE0822740
:1006B00093FF10C041E0282F2471243109F040E05D
:1006C00031E0282F2871283109F030E0431711F06C
:1006D0002CE082273091180430FF10C051E0282F01
:1006E0002171213009F050E041E0282F2871283095
:1006F00009F040E0541711F029E0822731FF10C0C3
:1007000041E0282F2171213109F040E031E0282F0C
:100710002871283109F030E0431711F029E08227D1
:1007200094FD877E08951F93CF93DF930E94A302C9
:10073000EC01811522E5920708F047C0811540E5DC
:10074000940708F0BEC0883E9105E0F4803E910514
:1007500060F4853A910570F4049738F481E02197AC
:1007600009F080E0C82F50E0D52FCE01DF91CF9166
:100770001F9108958D5C9109D0654397B0F3C0E057
:10078000D0E0F3CFC11580E4D807A8F4C11590E2FA
:10079000D90708F0ACC0CE019A9581159F4178F732
:1007A0008D2F0E944403182FCE0199270E94A30287
:1007B000EC01D12BDACFCE0199270E94A302CC27DE
:1007C000DF70C82BD92BD06AD0CF803842E5940790
:1007D000C8F5803652E5950708F056C0C03482E56A
:1007E000D807D0F4C03292E5D90708F046C08C2F64
:1007F0008695869520E2829FC0011124C37021E076
:1008000030E0A90102C0440F551FCA95E2F7EA0182
:10081000C82BD92BDD68A9CF8C2F8695869587703C
:1008200050E2859FC0011124C37021E030E0A9018E
:1008300002C0440F551FCA95E2F7EA01C82BD92B15
:10084000DC6893CF803C52E5950758F48F71C03A2D
:10085000D24578F590E0982F8827EC01C46FD06AD4
:1008600084CF805C9245809708F089CFDC2FCC271D
:10087000CC27DF71C06FD06A78CFCF71D0E0DC2F8A
:10088000CC27C16FD06A71CF86958695877020E29C
:10089000829FC0011124C37021E030E0A90102C091
:1008A000440F551FCA95E2F7EA01C82BD92BDA6825
:1008B0005CCF0E944403C82FD0E0DC2FCC27D0624D
:1008C00054CF8F710E94440393E0CC0FDD1F9A95A3
:1008D000E1F7CC27DF70282F30E084FF04C050E11F
:1008E000859F90011124C22BD32BD0693ECF8D2F31
:1008F0008F710E944403182FCE0199270E94A302F2
:10090000EC01D12BDCCFA0E0B0E0E9E8F4E00C94FE
:10091000711C8C01E0901404F09015048091120475
:1009200090911304E82AF92ACFE0D0E0CC24C394B4
:10093000D12CC6010C2E02C0880F991F0A94E2F731
:100940008E219F21892B49F4219798F7B12C8B2D6B
:10095000CDB7DEB7E9E00C948D1CBC2EB8018C2F0E
:100960000E9485020E949303019771F3F0CF0F93C9
:100970001F93CF93FC01858100811181811591F036
:10098000611581F0C8010E948304C82F682FC80137
:100990000E94F301B8018C2F0E948502CF911F9114
:1009A0000F910895C8010E942802C82FF3CFCF935A
:1009B000DF93D82FC92F0E9483046D2F7C2F0E94B4
:1009C00085020E949303DF91CF910895FC018481F9
:1009D0008115A1F0808191810E94D704282F9295E2
:1009E0009F70963099F060F4925F9F70923030F46F
:1009F000203FB1F038F481E0283E38F080E00895DF
:100A00009A5FF3CF81E0243FC9F7089591E0213F39
:100A100009F090E081E0283E08F080E0892B0895FD
:100A200081E0089580E00895F894E82FE295EF7052
:100A3000F0E041A18F7021E030E0B90102C0660F03
:100A4000771F8A95E2F7CB01962F9095942391A377
:100A500092A1892B82A3789408958091DB0381155C
:100A600059F0E091E303F091E403309729F001900D
:100A7000F081E02D0995089580E008959C01FC0126
:100A800032968FEF90E04191461751F08F3F19F465
:100A9000411101C0892F9F5F9630A9F78F3F09F45C
:100AA0000895280F311D87FD3A95F9016283089555
:100AB0009C01FC013296285F3F4F8191861302C052
:100AC000DF011E92E217F307C1F70895809101013B
:100AD00008952FB7F8946091C4037091C503809175
:100AE000C6039091C7032FBF0895CF92DF92EF9274
:100AF000FF928091DB03811559F00E9469056B011B
:100B00007C01C701B601FF90EF90DF90CF90089570
:100B10000E946905C090DD03D090DE03E090DF0302
:100B2000F090E003C60ED71EE81EF91EEACF089526
:100B300008950895FC019B018091640190916501E5
:100B40008617970740F0672B29F48091E8008E778D
:100B50008093E800C90140E0009741F4411106C0CC
:100B60008091E80082FF2FC080E0089520917C01F1
:100B70002115A9F12530A9F12091E80023FD2DC010
:100B80002091E80022FDECCF2091E80020FFE4CF87
:100B90003091F3002091F200009719F028303105D0
:100BA00058F041E02830310509F040E02091E8009C
:100BB0002E772093E800D0CF41914093F100019728
:100BC0002F5F3F4FE9CF80917C01811541F0853047
:100BD00041F08091E80083FFC3CF81E0089582E077
:100BE000089583E0089580915E0187FF13C080918E
:100BF000E80082FF06C08091E8008B778093E800D0
:100C0000089580917C018111F2CF089580917C013B
:100C10008115D9F38091E80080FFF8CF8091E8003A
:100C20008E77ECCF2091E4003091E50095E6A901A4
:100C30002091EC00822F817020FF06C08091E80097
:100C400080FF06C080E008952091E80022FD1AC0D0
:100C500080917C01811589F0853089F08091EB00CD
:100C600085FD0FC02091E4003091E5004217530745
:100C7000F9F29A95E1F684E0089582E0089583E020
:100C8000089581E00895E8EDF0E080818E7F808313
:100C90001092E2001092DA001092E100A0EEB0E0B3
:100CA0008C9181608C9380818F77808319BCA7EDB4
:100CB000B0E08C918E7F8C9380818F7E80831092A8
:100CC0005D010895FC01AC014B5F5F4F8FEF61E365
:100CD0009191892728E030E0982F990F87FF09C06C
:100CE000892F862721503040B9F7E417F50781F79F
:100CF0000895892FF7CF982F9093E900891771F005
:100D00005091EC002091ED004091F00021FD09C0D0
:100D10009F5F973089F78093E9000895562F40E050
:100D200022E03091EB003E7F3093EB003091ED00FC
:100D30003D7F3093ED003091EB0031603093EB005C
:100D40005093EC002093ED004093F0002091EE00D2
:100D500027FDDECF0895A0E0B0E0E1EBF6E00C94D3
:100D6000721CC8EDD0E088818F7E8883E7EDF0E0CB
:100D700080818160808384E082BF81E080935D0117
:100D800088818E7F888302EE10E0F8011082109235
:100D9000DA0081EEC82ED12CF601108288818F777F
:100DA000888388818068888388818F7D888319BC47
:100DB00010927C0110925C0110927B0110925B01F9
:100DC00090EEE92EF12CF70180818B7F8083888162
:100DD0008160888360E080E00E947B06F60180816C
:100DE0008E7F8083F801808181608083808188602C
:100DF0008083F70180818E7F8083888180618883F2
:100E0000CDB7DEB7E8E00C948E1CE0911B04909106
:100E10001A0427E0E91302C080E00895AE2FB0E085
:100E20002E9FF0011124E45EFB4F3181361306C082
:100E30003081381303C03581341304C0FD0131966D
:100E4000E770E8CF81E008950F931F93CF93DF936E
:100E50008C0180917C01843051F581E08093E90020
:100E60008FEF9091E80095FD06C095ED9A95F1F70A
:100E700000008A95B1F78091E80085FF18C00E94B4
:100E8000120681110FC0C8E0D0E08091E80085FD16
:100E900013C08091E8008E778093E8000E941206CC
:100EA000811599F38091E8008E778093E800DF91B7
:100EB000CF911F910F910895F80181918F01809337
:100EC000F100219711F7EECFCF93DF93D82FC92FE1
:100ED0000E94240788E0ED2FFC2FA6E6B1E00190E8
:100EE0000D928A95E1F7DF91CF910895A0E0B0E0EF
:100EF000ECE7F7E00C94701C182F092FB62EA72EE4
:100F00007A01809158019AE0C92ED12C8A3018F0CC
:100F1000CC24C394D12CC1E0D0E06B2D7A2D812F4D
:100F2000902FF7010995811116C02196CC16DD0688
:100F300094F0CC9FC001CD9F900D900D112420E026
:100F400030E045E34A95F1F700002F5F3F4F281747
:100F50003907B9F7E2CFCDB7DEB7EAE00C948C1CC5
:100F60009091180492FB222720F9281779F080FB32
:100F700092F990931804609117047091180484E01A
:100F800090E00E94F71C82E00E9465020895809123
:100F90000F0490911904892B40911004411589F098
:100FA00090E028E431E0F90150812F5F3F4F51116B
:100FB0009F5F51E02E343507B1F791111092100464
:100FC000842B8093460148E050E065EE73E086E4B0
:100FD00091E00E94A51C892BA9F088E0E6E4F1E0ED
:100FE000A5EEB3E001900D928A95E1F7E091E3035D
:100FF000F091E403309731F00280F381E02D86E434
:1010000091E00995089510920F04E8E4F1E086E07C
:10101000DF011D928A95E9F7109219040E94C70713
:1010200008950E9403082FEF84E39CE02150804044
:101030009040E1F700C0000088E19AE00FB6F89414
:10104000A895809360000FBE90936000FFCFAAE246
:10105000B0E0EDE2F8E00C94771C8EE591E0FC0145
:1010600001962091F100208321E086369207B9F79E
:1010700080915F01893009F45AC0C8F4823009F4C4
:10108000B6C0833009F485C0813091F18091E800C9
:1010900083FFEAC080915E0190915F019A3008F071
:1010A000E3C0E92FF0E0E15FF24E0C949F1C8A3020
:1010B00009F48CC08B3051F780915E01813231F799
:1010C0008091620190916301892B01F78091E80082
:1010D000877F8093E8000E94F30581E09091600192
:1010E000911101C080E0809302010E940308CECFDD
:1010F00080915E01813A51F68091E800877F80936C
:10110000E8008091620190916301892B61F060E0B9
:1011100080E090E070E00E949A058091E8008B7773
:101120008093E800B3CF68E086E691E0F3CF80914A
:101130005E01813209F0AACF809162019091630132
:10114000892B09F0A3CF8091E800877F8093E80086
:101150008091E80082FF18C09091F3008091F20026
:10116000029731F48091F100813011F0863021F442
:101170008091F100809301018091E8008B7780934A
:10118000E8000E94F30582CF80917C018111E0CFBD
:101190007DCF80915E01813A09F078CF8091620124
:1011A00090916301892B09F071CF8091E800877FCE
:1011B0008093E8008091E80080FFFCCF80910201DD
:1011C0008093F1008091E8008E77D9CF80915E0105
:1011D000813209F05BCF8091E800877F8093E8003F
:1011E0000E94F30580916101809300014FCF8091AF
:1011F0005E01813A09F04ACF8091E800877F8093B1
:10120000E8008091E80080FFFCCF80910001D8CFFA
:10121000803889F0823841F5809162018F70873083
:1012200018F58093E9008091EB0085FB882780F911
:101230001092E90006C080917B01880F90915B01BC
:10124000892B9091E800977F9093E8008093F100BC
:101250001092F1008091E8008E7723C0811116C0B2
:1012600080916001813011F18091E80083FF0AC014
:101270008091E800877F8093E8008091EB00806296
:101280008093EB00AA96E3E00C94931C823061F704
:1012900080916001811589F01092E9008091E80049
:1012A000877F8093E8000E94F305DECF81E09330D2
:1012B00009F080E080937B01EFCF809162018F7015
:1012C0002FEF280F263080F68093E9002091EB0065
:1012D00020FFE2CF933031F48091EB008062809365
:1012E000EB00DACF9091EB0090619093EB0021E05E
:1012F00030E0A90102C0440F551F8A95E2F74093E0
:10130000EA001092EA008091EB008860E8CF81113A
:10131000ABCF109160011F778091E3008078812B23
:101320008093E3008091E800877F8093E8000E942B
:10133000F3058091E80080FFFCCF8091E300806896
:101340008093E30083E0111101C082E080937C016F
:101350008BCF8058823008F087CF20916001309188
:1013600061012C3D53E0350799F583E08A838AE2D9
:1013700089834FB7F894DE01139620E03EE051E2F6
:10138000E32FF0E050935700849120FF03C0829533
:101390008F703F5F8F708A30C8F0895C90E08D93CA
:1013A0009D932F5F243161F74FBF8091E800877FC5
:1013B0008093E8006AE270E0CE0101960E949A05EF
:1013C0008091E8008B778093E8004ECF805DE6CF78
:1013D000832F99278330910501F160F481309105C5
:1013E00009F46BC0029709F03FCF82E290E0E4EF8E
:1013F000F0E027C0209162013091630181329105B4
:1014000009F453C0829709F02FCF232B09F02CCF7A
:1014100084E490E0E0EBF0E014C0C90199272130AA
:10142000A1F182309105C9F1892B09F01DCFEAE4C1
:10143000F1E0E4918E2F90E0EAE4F1E0009709F406
:1014400013CF2091E800277F2093E80020916401CA
:10145000309165018217930708F49C0140E0211543
:10146000310581F541112EC08091E80082FDA8CFA1
:1014700080917C01811509F4A3CF853009F4A0CFB8
:101480008091E80083FFF0CF9BCFE8E3F1E0E491A7
:101490008E2F90E0E8E3F1E0D1CFE8E2F1E0E491D3
:1014A0008E2F90E0E8E2F1E0C9CF232B09F0DCCEEB
:1014B00089E090E0E6E0F1E0C4CF82E190E0E6E18F
:1014C000F1E0BFCF80917C01811509F479CF85309F
:1014D00009F476CF8091E80083FD72CF8091E80017
:1014E00082FDC2CF8091E80080FFB9CF9091F300D8
:1014F0008091F2002115310519F08830910550F0E6
:1015000041E0089709F040E08091E8008E778093F1
:10151000E800A5CF44914093F10031962150310964
:101520000196E8CF803809F09FCE8091E800877F50
:101530008093E80080915C018093F1008BCE811153
:1015400093CE10916001123008F08ECE8091E800A9
:10155000877F8093E80010935C010E94F3051115CA
:1015600079F084E080937C0161EC81E00E947B064D
:1015700080917C01843051F482E08093030174CE29
:101580008091E30087FDEDCF81E0ECCF81E0F5CFE6
:10159000CF93C82F8115A9F08CEF8C0F813A98F466
:1015A000E8E4F1E08EE491E02191C217E9F08E17B2
:1015B0009F07D1F76C2F86E491E00E943E050E94C0
:1015C000C707CF91089580E28C0F8830D0F7C7709D
:1015D00021E030E001C0220FCA95EAF780910F04A4
:1015E000822B80930F04EBCF6C2F86E491E00E9456
:1015F00058050E94C707DECF682F811551F08CEF88
:10160000860F813A38F486E491E00E9458050E94E2
:10161000C707089580E2860F8830D8F7677081E0A9
:1016200001C0880F6A95EAF70E947D02F0CF81150C
:1016300039F090910F04892B80930F040E94C70703
:101640000895811521F00E947D020E94C707089528
:10165000A4E0B0E0EEE2FBE00C94771C4091C00304
:101660005091C1036091C2037091C3032FB7F894E6
:101670008091C4039091C503A091C603B091C703A4
:101680002FBF841B950BA60BB70B11E08436910579
:10169000A105B10578F10E947505DC01CB01029628
:1016A000A11DB11D89839A83AB83BC8380912701DF
:1016B0009091280188539C4F20912601422F50E0A1
:1016C000253010F044E050E0BE016F5F7F4F0E9474
:1016D000B21C82E090E00E94E01B182F811551F0AF
:1016E0000E9469056093C0037093C1038093C20395
:1016F0009093C303812F2496E3E00C94931CA6E0FF
:10170000B0E0E5E8FBE00C94751CF62E072F80E0B6
:1017100090E00E94E01B182F811509F469C08091A8
:101720001901482F50E0811511F041E050E060911F
:101730001A0170911B0168537C4FCE0106960E94DE
:10174000B21C4091D7035091D8036091D903709196
:10175000DA032FB7F8948091C4039091C503A09148
:10176000C603B091C7032FBF841B950BA60BB70B05
:1017700084369105A105B10538F489EC93E00E9407
:1017800062069E818917A1F181E090E00E94E01B32
:101790008115C9F180912101482F50E0863010F069
:1017A00045E050E0609122017091230168537C4F25
:1017B000CE0101960E94B21C89EC93E00E94620661
:1017C0009E81891320C00E9469056093D70370939E
:1017D000D8038093D9039093DA0385E0FE01319614
:1017E000A2EDB3E001900D928A95E1F781E00CC083
:1017F00085E0E9ECF3E0DE01119601900D928A9507
:10180000E1F71111EACF80E095E0E2EDF3E0AF2DD2
:10181000B02F01900D929A95E1F72696E5E00C9491
:10182000911CAB0124E630E0BC0188E70E94FC1962
:101830009C0181E0232B09F080E008958091BE0394
:10184000811569F08091BB03811549F062E070E079
:101850008EEA90E00E94110C81111092BB03089552
:101860008091BE038115F9F00E946905DC01CB016E
:10187000805A9541AF4FBF4F8093B7039093B80301
:10188000A093B903B093BA038091BB0381110BC03D
:1018900062E070E08CEA90E00E94110C811519F072
:1018A00081E08093BB0308951F921FB61F921124FD
:1018B0008F939F93AF93BF9380917A01811113C04F
:1018C0008091C4039091C503A091C603B091C70352
:1018D0004196A11DB11D8093C4039093C503A093AD
:1018E000C603B093C703BF91AF919F918F911F9093
:1018F0001FBE1F9018952FB7F8948091C403909144
:10190000C503A091C603B091C7032FBF08959C01E2
:101910004FB7F8948091C4039091C503A091C6037A
:10192000B091C7034FBF821B930B0895FF920F9393
:101930001F93CF93DF93C62FD42F122F8115A9F0B9
:1019400060930D040E947B0C90935A01809359017F
:10195000C77081E001C0880FCA95EAF70E94170B93
:10196000CDB7DEB7E5E00C94911C80910D046813AF
:1019700033C08091590190915A010E94870C84369E
:10198000910550F500E20D0FCD17A9F0C770FF24A7
:10199000F3948F2D01C0880FCA95EAF70E94210B9E
:1019A000083048F48D2F877001C0FF0C8A95EAF744
:1019B0008F2D0E94170B812F0E94C80A812F0E9431
:1019C000FC0A083068F6D77081E001C0880FDA950C
:1019D000EAF70E94210BC4CFC77081E001C0880FD5
:1019E000CA95EAF7F6CFA0E0B0E0E9EFFCE00C948E
:1019F000721C8C01FC018481811531F161E0C80108
:101A00000E94B704EC01F8018581FE01E851FC4712
:101A1000E730F105A8F5E75EF24E0C949F1C26E234
:101A200041EE61EE0E94960C80911604877081153C
:101A300059F0F8018581811539F08091180482FFF1
:101A400003C082E00E946502CDB7DEB7E8E00C94E7
:101A50008E1C27E245EE65EEE5CF26E241EE60EE14
:101A6000E1CF27E245EE64EEDDCF26E241EE62EE05
:101A7000D9CF27E245EE66EED5CF28E241E0EBCFA5
:101A8000811509F490C310920D049E013057233242
:101A9000310508F098C384E090E00E94C31C909345
:101AA000180480931704FE01E150F047E232F1057B
:101AB00020F4E05EF24E0C949F1C8091170481602C
:101AC00080931704609117047091180484E090E0EB
:101AD0000E94F71C0E940308A7CF80911804886019
:101AE00080931804EFCF809117048260E9CF809132
:101AF00017048460E5CF809117048860E1CF80915E
:101B000018048160EDCF809118048260E9CF809144
:101B100017048061D5CF809117048062D1CF809166
:101B200017048064CDCF0E94030880911704806859
:101B3000C7CF809117048C60C3CF80911804836055
:101B4000CFCF809117048E7FBBCF80911804877F01
:101B5000C7CF809117048D7FB3CF809117048B7FFF
:101B6000AFCF80911704877FABCF809118048E7F11
:101B7000B7CF809118048D7FB3CF809117048F7EEB
:101B80009FCF809117048F7D9BCF809117048F7B0F
:101B900097CF0E940308809117048F7791CF80918F
:101BA0001704837F8DCF809118048C7F99CF80910B
:101BB0001704992782FF939590FB82F990FB83F994
:101BC0007FCF80911804982F909590FB80F990FB1F
:101BD00081F986CF90911704892F8F7B96FF8064BF
:101BE0006FCF0E94030890911704892F97FB87F904
:101BF000805866CF61E08EE090E00E94D91C62CFF1
:101C000060E0F9CF90911704892F8F7E94FF806157
:101C100057CF90911704892F8E7F90FF816050CF0E
:101C200090911804892F877F93FF886059CF9E0178
:101C3000205E324520323105A8F481112AC0CF71CF
:101C400081E090E09C0102C0220F331FCA95E2F7A9
:101C5000E901622F83E090E00E94D91CCE010E942E
:101C6000C701E2CE8115A9F0CA353CE7D30709F4D4
:101C7000B4C008F07DC0C1309CE7D90709F4ABC0FF
:101C8000C330ECE7DE0709F4A0C0C115DC4709F456
:101C900080C0F8018581E080F180811509F4A1C040
:101CA000C7010E948304C82F682FC7010E94F30157
:101CB000B7018C2F0E9485020E949303D82FC92F51
:101CC000F801D580C680C2942FE0C222809116040C
:101CD0008770811501F1FD2CD114F1F0892F807FDF
:101CE000803461F080E28D0F8830A8F0892F807EEB
:101CF000803221F4D23078F0C11469F08091180458
:101D000082FF09C082E00E946502809116048770FC
:101D1000FF24F3948111F12C8C2F82958F708830E1
:101D200009F430C108F062C0823008F471C0825FEB
:101D30008F70823008F4A6C0F114A9F080911604C7
:101D400080FD11C0F80115828695869586950E94C2
:101D5000D101C8010E94F30C8091160486958695E6
:101D600086950E94E10160E0C8010E94B7046CCE34
:101D7000CB352CE7D20799F180911804002482FF1B
:101D80000394802DCC35DC4709F083CF0E94B00747
:101D900080CF0E9403088FEF94E3ECE081509040E5
:101DA000E040E1F700C0000087E797E79093010863
:101DB0008093000888E19AE00FB6F894A895809384
:101DC00060000FBE90936000FFCF6FEF7FEF80E069
:101DD00090E00E94F71C0E94110881E0D7CF80E0BC
:101DE000D5CFC7010E942802C82F62CF893009F4DD
:101DF00055C18A5F8F70823008F09ECFD23F09F0C4
:101E00005EC18C2F8F71D11057C10E94D101EFC0DC
:101E1000FC2FFF70EF2EC03118F0E29490EFE92212
:101E2000D114B9F0E11469F080E28D0F883010F020
:101E3000D11109C080910F048E2980930F040E9454
:101E4000C7078D2F43C0809119048E2980931904F0
:101E5000F6CF8D2F0E94FC0AE11409F46DCF80E2C9
:101E60008D0F883010F0D11104C08E2D0E947D029C
:101E700006C0E094809119048E21809319040E9479
:101E8000C7075ACF2C2F2F70E22EC07FC03219F017
:101E9000E29480EFE822D11549F0D13009F452C024
:101EA000D11409F45EC0C114F9F0CBCF80911804AD
:101EB00082FD16C0D11469F0E11439F080910F044D
:101EC0008E2980930F040E94C70780E00E94C80AF1
:101ED00033CF80E00E94FC0AE11409F42DCFC5CF76
:101EE000D114A1F0C11004C08E2D0E94170B24CF75
:101EF00031E0C31221CF809110049E2D9823E91662
:101F000009F41ACF8E298093100416CFC11014CF74
:101F10008E2D0E94210B909110048E2D8923811506
:101F200029F08E2D809589238093100480911104CF
:101F30009E2D9823911509F4FFCEE094E822E092BB
:101F40001104FACED11429F086E0C81608F0F4CEB8
:101F5000CBCF95E0C91608F0EFCE8E2D0E94210B55
:101F6000EBCEC114D1F3D93349F4EFEFF7EE23E010
:101F7000E150F0402040E1F700C000008D2F0E94AA
:101F8000FC0ADACE8C2F8370811142C0D1102FC091
:101F90004D2F429546954770440F440F2D2F2F70BB
:101FA00030E0042E02C0220F331F0A94E2F780E0D3
:101FB00090E0D4FF09C08FE090E002C0880F991F25
:101FC0004A95E2F780959095C695C695C370C23044
:101FD000B1F0C33089F04091120450911304C13024
:101FE00049F0822B932B842395230E94C7010E94E2
:101FF0002D05A2CE242B352B822B932BF6CF822BB3
:10200000932B209112043091130482279327EDCF54
:10201000D11491F1C0FFEBCF4D2F429546954770FB
:10202000440F440F2D2F2F7030E0042E02C0220FDA
:10203000331F0A94E2F780E090E0D4FF09C08FE0FC
:1020400090E002C0880F991F4A95E2F7809590951D
:10205000C695C695C370C230C1F0C33099F04091A7
:10206000140450911504C13059F0822B932B842312
:1020700095230E94CC01BBCF823008F4B8CFCCCFDF
:10208000242B352B822B932BF4CF822B932B209157
:1020900014043091150482279327EBCFCF70D1140D
:1020A00039F08C2F0E94D1018D2F0E94170B9FCFEA
:1020B0008D2F0E94210B8C2F0E94E10198CF70F48C
:1020C000D03FC9F0D13F91F0D11409F458C0C114E8
:1020D00009F452C08D2F0E94C80A89CFD33F29F13D
:1020E000D43F91F79091180492FD2DC08C2F8F71E1
:1020F000D11411F38ACED114A9F035E0C31608F03B
:1021000076CFCF7181E090E0FC0102C0EE0FFF1F9F
:10211000CA95E2F7EF0180911404909115048E277F
:102120009D27A7CFF6E0CF16EACF80E090E0D1144C
:1021300009F49FCFCF7181E090E002C0880F991F12
:10214000CA95E2F796CFD11461F08C2F8F7192FF70
:102150005CCE982F990F990F990F93609093160466
:1021600054CE81E00E94650222E0C21608F43FCFFF
:1021700082E00E9465023BCF8C2F8F7146CEC11446
:1021800079F0D93349F43FEF87EE93E03150804046
:102190009040E1F700C000008D2F0E94FC0A27CF7D
:1021A0008C2F8F7189CFC631FCE7DF0709F03FCD57
:1021B00080910E0465E3811101C069E286E491E03B
:1021C0000E94580516C0C6312CE7D20709F02FCD62
:1021D00080910F048A7A91E0811101C090E0909380
:1021E0000E0465E3811101C069E286E491E00E947A
:1021F0003E050E94C70718CC80915A04803178F4BC
:1022000080915904811559F0E0911B0420911A0422
:10221000309155044091540457E02E1301C00895A5
:102220006E2F70E05E9FF0011124DF01A45EBB4FB2
:1022300014968C911497811561F111968C911197D8
:10224000831327C08C91841324C015968C91159705
:1022500081111FC012968D919C91A0915604B0914E
:1022600057048A1B9B0B8436910598F480915A047D
:102270008F70806180935A04EE5DFB4F80818F7078
:102280008061808384E594E00E94F30C0E945B02ED
:102290000895FB013196E770C0CFADE0B0E0E3E513
:1022A000F1E10C946D1C8C0186E0F801DE011896BA
:1022B00001900D928A95E1F7F801F580C48084E5DC
:1022C000882E84E0982E70905804711020C0C1149C
:1022D000D9F0F11409F40DC1C8010E94E60481157A
:1022E00009F407C187E0F801D40101900D928A95A5
:1022F000E1F7F1E0CF1206C08091540490915504AB
:102300000E94D7040E94FC10FF24F39454C0E08084
:10231000A280B380D09059048091560490915704C4
:102320009501281B390BD11409F4C6C02436310598
:1023300008F09CC0C11441F390915504C180809174
:102340005A04803108F058C0C91214C09091540446
:102350009E1110C0F1104AC08F70806180935A04A2
:1023600084E594E00E94F30C80915A04F80186837E
:10237000F12C21C0F1103AC040E06C2D8E2D0E944E
:10238000050740E06C2D8E2D0E940507F82E811167
:10239000EFCF888599850E94D704292F22952F7029
:1023A000903470F49F702230A0F09115B1F0F801D4
:1023B0009681903190F48F2D2D96EDE00C94891C30
:1023C0002A5F2F70223068F0C8010E94F30CFD2CA8
:1023D000F2CF911511F0811571F3805E883058F3BA
:1023E000F3CF803F40F3815F8330F9CF80915A046F
:1023F000816080935A04BCCFC91213C090915404D9
:102400009E110FC0F1100DC08683C8010E94F30C0D
:1024100087E0F801A4E5B4E001900D928A95E1F718
:1024200073CFC8010E94E604811509F462C0F1145B
:1024300009F45FC080915A04803278F020915404EE
:10244000309155043A832983BC82AB827D821E82FF
:102450008F83CE0101960E94F30C87E0F801A4E57A
:10246000B4E001900D928A95E1F74CCF80915A0427
:10247000803150F484E594E00E94F30C87E0F4018D
:1024800011928A95E9F774CFC11409F43DCF2091D8
:10249000550491812913C5CF909154049E11C1CF49
:1024A000F110BFCF8683C8010E94F30C87E0F401CE
:1024B00011928A95E9F728CF24363105F8F6C11430
:1024C00009F422CFF114A9F0909155048181981359
:1024D00006C0809154048E1102C087E09BCFC801D2
:1024E0000E94E6048111B9CF80915A0481608093E3
:1024F0005A04C8010E94F30C07CFABE1B0E0E3E857
:10250000F2E10C94761C4E8B5F8B688F798F8A8FEB
:10251000192F9B8F9111109219041D8A86E0FE01DC
:102520007696DE011F9601900D928A95E1F70A8D4D
:10253000011539F00B8B1C8B61E0CE010F960E94C8
:10254000B7040B8B1C8B87E0FE013F96DE011896CB
:1025500001900D928A95E1F7CE0108960E944D11E7
:10256000811128C020911A0430911B0487E0FE01DC
:102570003896DE01119601900D928A95E1F78C85CF
:102580008115C1F0822F90E0019687709927381746
:102590001906D9F097E0929FD0011124A45EBB4F99
:1025A000FE01319601900D929A95E1F780931A04FD
:1025B0000E945B0217E080911B0490911A0489131A
:1025C00012C06B96E4E00C94921C0E9403081092D7
:1025D0001A0410921B0487E0E4E5F4E0DF011D9289
:1025E0008A95E9F7E7CF189FC0011124845E9B4FBD
:1025F0000E944D11811529F380911B0490E00196F2
:102600008770992780931B04D6CFA6E0B0E0EBE05B
:10261000F3E10C94761C0E947B0C8C018091E10309
:102620009091E2038017910779F019821A820E9433
:102630007B0CBC0149815A8180E090E00E947D12B0
:102640001093E2030093E1032696E4E00C94921CBD
:10265000AFE0B0E0EEE2F3E10C94691CFE013196CC
:102660008AE0DF011D928A95E9F78EE2E82E81E08B
:10267000F82E8F0193E3692E91E0792E2F01AA2481
:10268000A394B12C39E3832E31E0932EF70181918D
:102690007F018F3F09F43EC0F894E82FE295EF7078
:1026A000F0E021A18F70A50102C0440F551F8A954B
:1026B000E2F7CA01922F982B91A392A180958923CA
:1026C00082A3789400C0E3E3F1E031E0312C219162
:1026D0002F3F79F0A22FA295AF70A05EB0E08C9151
:1026E00090E02F7002C0959587952A95E2F780FFBC
:1026F00075C080E0382A330F8E169F0641F7F70128
:1027000082918F3F11F00E94140550EA5A95F1F71B
:10271000D8013C920F5F1F4F6E147F0409F0B6CFB3
:102720004AE050E0B2018EE691E00E94A51C6C01E7
:10273000892B41F08AE0F201AEE6B1E001900D9202
:102740008A95E1F70091790110E003581E4FC114FA
:10275000D10409F445C081E0809357010E947B0CAD
:1027600090935601809355018091DB03811509F404
:102770008DC07E01BBE0EB0EF11C85E0F7011192EC
:102780008A95E9F7809158018A3008F04BC04FE7ED
:102790005BE0B701C8010E947607811509F464C0A7
:1027A00048E25BE0B701C8010E947607811509F491
:1027B0005BC0109258018091780190E045E050E0B4
:1027C000B70183589E4F0E94A51C21E0209354011D
:1027D000892BE9F52F96E1E10C94851C832F8ACF94
:1027E00080915701811509F4BFCF809155019091D7
:1027F00056010E94870C059708F4B6CF45E050E0DB
:102800006EE671E0C8010E94A51C892B41F085E0AD
:10281000EEE6F1E0D80101900D928A95E1F7109271
:102820005701A2CF80915201909153010E94870CD1
:10283000843F914008F0ABCF80915401811551F253
:1028400085E0D7011D928A95E9F710925401A09175
:102850007801B0E0A358BE4F85E0FE013B960190A1
:102860000D928A95E1F7B6CF809158018F3F39F4E8
:102870000E947B0C9093530180935201DDCF8F5FB8
:10288000809358018A3008F496CFF2CF85E0F801A2
:10289000A9ECB3E001900D928A95E1F789EC93E001
:1028A0000E9462068093C803C090CE03D090CF03ED
:1028B000E090D003F090D10380914E0190914F01B0
:1028C000A0915001B0915101C816D906EA06FB0645
:1028D00009F480CFC0924E01D0924F01E092500196
:1028E000F09251010E946905C61AD70AE80AF90A4E
:1028F000C092DD03D092DE03E092DF03F092E003AA
:1029000069CFCDB7DEB72A970FB6F894DEBF0FBEFA
:10291000CDBF85B7806885BF85B7806885BF84B720
:10292000877F84BF0FB6F894A89580916000886176
:1029300080936000109260000FBE80E890E00FB6B8
:10294000F89480936100909361000FBE81E08093C2
:10295000030182E195E090934501809344010E9438
:1029600043060E94AB068091E20084608093E200FF
:10297000789480917C01811599F08091E900109103
:10298000EC008F70179511271795182B1092E900FE
:102990008091E80083FD0E9427081F701093E900D2
:1029A00082E084BD93E095BD9AEF97BD80936E0061
:1029B0001092DD031092DE031092DF031092E00309
:1029C0008091D80080618093D8002AE12A95F1F7A0
:1029D00000C08091D900182F117080FD04C00E94A2
:1029E000430610927C011093DB031093DC031093D9
:1029F000040111110E94F21A8091040180910401D6
:102A000090E0811101C095E09093790185E0891BE8
:102A1000809378010EE211E0D8018D918D018F3FF6
:102A200011F00E941405B1E003331B07A9F703E37B
:102A300011E0F80181918F018F3F11F00E94140580
:102A4000F1E009331F07A9F78AE0EDE7F1E0DF01C4
:102A5000282F1D922A95E9F7EEE6F1E0DF011D929D
:102A60008A95E9F780E090E00E94C31C853E9E4F66
:102A700009F461C065EE7EEF80E090E00E94F71CF3
:102A800060E082E090E00E94D91C81E090E09093A9
:102A900013048093120461E083E090E00E94D91C4B
:102AA00060E074E184E090E00E94F71C60E086E062
:102AB00090E00E94D91C60E087E090E00E94D91C61
:102AC00040E050E0BA0188E090E00E94EB1C60E03A
:102AD00083E290E00E94D91C60E08CE090E00E94CC
:102AE000D91C60E08DE090E00E94D91C19821A8206
:102AF0001B821C821D821E821F82188648E050E0C5
:102B000067E170E0CE0101960E94C91C40E050E0F0
:102B1000BA018FE190E00E94EB1C40E050E0BA0166
:102B20008FE090E00E94EB1C40E050E0BA0183E1AE
:102B300090E00E94EB1C82E090E00E94BB1C80931E
:102B4000870184E090E00E94C31C90931804809356
:102B5000170483E090E00E94BB1C90E00E94C70134
:102B60001092B30380E8809392010E9477196BE082
:102B700070E085E691E00E94110C8115D9F18091F9
:102B8000B30365E070E081FD9FC080E691E00E94A4
:102B9000110C811579F16DE070E08EE491E00E94F6
:102BA000110C811539F10E946905DC01CB01805AB5
:102BB0009541AF4FBF4F8093B7039093B803A09355
:102BC000B903B093BA03E3EBF1E080E092E0DF01F8
:102BD0009C011D9221503040E1F78FEF9FEF9093C1
:102BE000B6038093B50381E08093BE038093BB035B
:102BF0001092B4038091DB03811102C00E94F51A88
:102C000085E091E09093E4038093E30348E1242E70
:102C1000312C80917C01853049F480917C01853094
:102C200009F455C00E9403080E942D050E94281334
:102C300008E811E03DE7E32E31E0F32ED701F8017B
:102C400091918D9121E0E239F20709F474C098174F
:102C5000B9F38090DB03D12CD701CD907D01F80131
:102C600091908F019C1439F19C24B12CAA24A39437
:102C7000892D8A218115C1F08114B1F0B982DA82DF
:102C80000E947B0C9C838B83F1E0FD8391E08C2D73
:102C90008A21811101C090E09E8349815A816B8114
:102CA0007C818D810E947D12B394AA0C26E0B21221
:102CB000DFCFF801C292D3943AE0D312CDCF0E9475
:102CC0007505DD24D3943CC08BE591E060CF809105
:102CD0007C01843021F10E941E0C10927A0130E4B4
:102CE0000FB6F894A895209260000FBE3093600054
:102CF00083B7817F846083BF83B7816083BF78940B
:102D0000889583B78E7F83BF0FB6F894A89580917E
:102D10006000886180936000109260000FBE0E9486
:102D20002813EDE7F1E08191811119C181E0E738C5
:102D3000F807C9F772CF98138CCF0E940513D12CD6
:102D40008091BE03811569F18091BC039091BD0310
:102D50000E94870CC29730F00E947B0C9093BD03B9
:102D60008093BC038091B5039091B603892B41F504
:102D70008091BB038115A9F00E9469050091B703FA
:102D80001091B8032091B9033091BA03601B710B05
:102D9000820B930B6F3F7F4F8F4F9F4710F40E9422
:102DA0001E0CD1100E94300C0E942D059091BF0383
:102DB000891709F42ECF8093BF030E94690529CF9C
:102DC0008091B4038111D4CF0E94300C2091B503BF
:102DD0003091B6032115310559F210E041E050E081
:102DE000812F90E07A01012E02C0EE0CFF1C0A94A4
:102DF000E2F7B70162237323672B11F41F5FF0CF53
:102E00002091B30320FF98C0912F990F990F990F2C
:102E100037E0390F80E023E0909311018093140193
:102E2000309312012093150124E630E047E050E092
:102E30006FE071E088E70E94AD19892B09F098CF07
:102E400080E2189FA00111248091B30380FF80C00D
:102E5000E3E9F1E080E2DF011D928A95E9F7EDE315
:102E6000F1E0FA87E98709E311E087E0982E8824EA
:102E70008394A985BA856D91BA87A987F801819154
:102E80008F01840F952F911D9C012D543E4F2901D8
:102E9000E62FF0E0ED56FE4F20E030E0692C621A9C
:102EA000C82C022E01C0CC0C0A94EAF7520190E023
:102EB000D5018D915D018C21662D691B677070E0D5
:102EC000B82F062E01C0BB0F0A94EAF771956195E1
:102ED00071096770772701C086956A95EAF78B2B91
:102EE0006081862B80839F5F983011F72F5F3F4F63
:102EF00031962830310591F6E985FA85E154F140A3
:102F000009F0B7CF04E610E020E230E043E951E0F9
:102F100060E488E70E94471A892B09F029CFE094E2
:102F2000F0948091B5039091B6038E219F219093E8
:102F3000B6038093B5031CCF969587959695879594
:102F4000282F912F9295990F90763FE1390F64CFFA
:102F50004D545E4F04E610E020E230E0D9CF80917E
:102F60007B01811509F459CE90E199BDA2E1A9BD7B
:102F700009B400FEFDCF8091D8008F7D8093D800EA
:102F80008091E00082608093E0008091E00081FD0C
:102F9000FCCF0E94030841CE78941F921FB61F9267
:102FA00011248F939F93AF93BF938091C40390910B
:102FB000C503A091C603B091C7030196A11DB11D21
:102FC0008093C4039093C503A093C603B093C70333
:102FD000BF91AF919F918F911F901FBE1F90189529
:102FE0001F920F920FB60F9211242F933F934F937E
:102FF0005F936F937F938F939F93AF93BF93EF9361
:10300000FF938091E10082FF09C08091E20082FF7E
:1030100005C08091E1008B7F8093E1008091DA0010
:1030200080FF24C08091D80080FF20C08091DA000A
:103030008E7F8093DA008091D90080FFA8C080E164
:1030400089BD82E189BD09B400FEFDCF81E0809396
:103050007C0180915D01811109C00E9443060E949C
:10306000AB068091E20084608093E2008091E100F1
:1030700080FF1AC08091E20080FF16C08091E200BC
:103080008E7F8093E2008091E20080618093E20075
:103090008091D80080628093D80019BC85E080932D
:1030A0007C0183E0809303018091E10084FF2FC0C5
:1030B0008091E20084FF2BC080E189BD82E189BD5F
:1030C00009B400FEFDCF8091D8008F7D8093D80099
:1030D0008091E1008F7E8093E1008091E2008F7EFD
:1030E0008093E2008091E20081608093E200809111
:1030F0005C01811509F451C084E080937C018091CA
:103100007C01843009F051C082E0809303018091FA
:10311000E10083FF2BC08091E20083FF27C08091F4
:10312000E100877F8093E10082E080937C01109230
:103130005C018091E1008E7F8093E1008091E2004C
:103140008E7F8093E2008091E20080618093E200B4
:1031500060E080E00E947B068091F00088608093B0
:10316000F00081E08093030180930201FF91EF91D1
:10317000BF91AF919F918F917F916F915F914F918F
:103180003F912F910F900FBE0F901F90189519BC73
:1031900010927C0110925D0169CF8091E30087FF5E
:1031A00002C083E0AACF81E0A8CF81E0AECF1F921A
:1031B0000F920FB60F921124EF92FF920F931F936D
:1031C0002F933F934F935F936F937F938F939F932F
:1031D000AF93BF93CF93EF93FF9309EE10E0F80105
:1031E0008081C091EC008F70C795CC27C795C82B04
:1031F000108280EFE82EF12CF7018081877F808399
:1032000078940E942708F8011082F7018081886075
:103210008083CF70F801C083FF91EF91CF91BF9170
:10322000AF919F918F917F916F915F914F913F915E
:103230002F911F910F91FF90EF900F900FBE0F9065
:103240001F901895FF920F931F93CF93DF93182F22
:10325000EB011092BC0084EA8093BC000E947B0CBE
:10326000082FF92E8091BC0087FF28C08091B900FB
:10327000887F883029F08091B900887F8031A1F55E
:103280001093BB0084E88093BC000E947B0C182F35
:10329000092F8091BC0087FF1FC02091B900287FB3
:1032A00080E090E0283199F081E090E0203411F442
:1032B00080E090E091958195910909C0802F9F2D24
:1032C0000E94870CC817D90768F68EEF9FEFCDB71D
:1032D000DEB7E5E00C94911C812F902F0E94870CA3
:1032E000C817D907B0F6F1CF8FEF9FEFF0CF10924C
:1032F000B9008CE08093B80008950F931F93CF938B
:10330000DF93EB018093BB0084E88093BC000E94B4
:103310007B0C182F092F8091BC0087FF11C02091D2
:10332000B900287F81E090E0283211F480E090E03D
:10333000919581959109DF91CF911F910F910895FA
:10334000CF3FDC0741F3812F902F0E94870CC817D5
:10335000D90708F78EEF9FEFEECFA0E0B0E0E3EBE8
:10336000F9E10C946D1C782EB62EA72E6A01E901A6
:103370000E947B0C4C01C431D10528F1CF3FDC0702
:1033800031F1CE0164E170E00E94541CF62EE72E6C
:103390006F2D7E2D872D0E9422198C01892BD1F44F
:1033A000EB2CFA2CCE0CDF1CEC14FD0419F00115EB
:1033B0001105D1F084E98093BC00C801CDB7DEB718
:1033C000EDE00C94891CFF24F394E12CE1CF85E01F
:1033D000F82EFBCFCF3FDC07D9F2C4010E94870C47
:1033E000C817D907A8F6DCCFBE01F70181917F018C
:1033F0000E947D198C01D8CFA0E0B0E0E2E0FAE1B4
:103400000C946D1C782EB62EA72E6A0189010E949D
:103410007B0C4C010431110518F10F3F100719F115
:10342000C80164E170E00E94541CEB01BE01872DCD
:103430000E9422197C01892BC1F4CB2DDA2DCC0EF0
:10344000DD1ECC15DD0519F0E114F104C1F084E9AD
:103450008093BC00C701CDB7DEB7EDE00C94891CAA
:10346000C1E0D0E0E3CFC5E0FCCF0F3F1007F1F2A1
:10347000C4010E94870C08171907C0F6DECFFE01B1
:103480008491B8010E947D197C012196DACFA0E0D9
:10349000B0E0EDE4FAE10C946C1C682E962E5A0113
:1034A000690178010E947B0C782E892E0431110568
:1034B00030F10F3F100731F1C80164E170E00E9464
:1034C000541C162F072F612F702F862D0E94221952
:1034D000EC01892BC9F0FFEFEF16FF06A1F3872D52
:1034E000982D0E94870CE816F90668F784E9809306
:1034F000BC00CE01CDB7DEB7EEE00C94881C11E025
:1035000000E0E1CF15E0FCCFB701892D0E947D19C5
:10351000EC018501CA0CDB1C0C151D0539F3209745
:1035200029F7B701F80181918F010E947D19EC0103
:10353000F3CF8EE14A9B02C08A95E1F74A9BFECF0A
:1035400008955A9880E28A95F1F75A9A0895FC01F5
:103550003BE03A95F1F798E020E080E031E040E18F
:103560004A95F1F7880F4A9B02C08160232742E009
:103570004A95F1F7000040E14A95F1F79A9579F7FD
:1035800090E19A95F1F799B132E03A95F1F70000A0
:1035900040E14A95F1F792FB992790F99227208113
:1035A000920F90830895A1E0B0E0E9EDFAE10C9468
:1035B000741C19828C017C01E60EF11C0E94991A80
:1035C000CE0101960E94A71AF80181938F01EE1592
:1035D000FF05A1F781E09981911180E02196E6E055
:1035E0000C94901C529A5A9A089552985A9AEA9AB0
:1035F000E9E6F0E080818F7C808308956150770B4D
:1036000091E001C0990F6A95EAF7692F90E021E0F7
:10361000611108C0911599F05A9A80E28A95F1F7E4
:103620005A980895362F3823311539F05A9A92272F
:1036300030E23A95F1F76695EBCF5A98F9CF5A9860
:10364000ECCFFF920F931F93CF93DF93EC018C018C
:10365000060F111DF9900E94A11A68E08F2D0E949B
:10366000FE1AC017D107B1F7CDB7DEB7E5E00C946D
:10367000911C1F920F920FB60F9211240F931F935C
:103680002F933F934F935F936F937F938F939F936A
:10369000AF93BF93EF93FF93CF93DF930F92CDB789
:1036A000DEB719820E94991ACE0101960E94A71ACC
:1036B000082F069506950695982F92959570202FC0
:1036C0002570920F292F237096959695920F982723
:1036D00097708981892B811509F05CC0043008F04E
:1036E00059C080E18A95F1F75A9A529A82E08A95F8
:1036F000F1F700C05A9888E0089F80011124D80192
:10370000AA5EBE4F1696ED91FC9117973097A9F0DF
:10371000609141017091420114962D913C91159751
:10372000260F371F11968D919C911297680F791F64
:1037300013964C9113978C910995F801EA5EFE4F10
:103740006381611551F020914101309142018481E2
:103750009581820F931F0E94211B0E94A11A80E174
:103760008A95F1F75A9852985A9A80E18A95F1F71A
:10377000F801EA5EFE4F6081611551F02091410130
:103780003091420181819281820F931F0E94D31A4E
:103790000E94991A0F90DF91CF91FF91EF91BF9105
:1037A000AF919F918F917F916F915F914F913F91D9
:1037B0002F911F910F910F900FBE0F901F90189592
:1037C0000F931F93CF93DF938C0104970CF064C089
:1037D000F894529A5A9885E08A95F1F70000C02F24
:1037E000C695C570802F8570C80F8C2F8370C695C5
:1037F000C69593E0000F111F9A95E1F7C80FC80115
:103800008C2BEC010E94A11A00C068E08C2F0E9452
:10381000FE1A90E19A95F1F752985A9A4A9B35C050
:1038200087E090E04A9933C0F801EA5EFE4F638179
:10383000611561F0209141013091420184819581AF
:10384000820F931F0E94D31A811519F10E94991AB1
:1038500080E28A95F1F75A98529A90E19A95F1F799
:10386000F801EA5EFE4F6081611551F0209141013F
:103870003091420181819281820F931F0E94211B0E
:103880000E94A11A789481E008C000C0C7CF0197B8
:1038900049F4529A5A9A789480E0DF91CF911F911F
:1038A0000F91089500C0BECFAA1BBB1B51E107C0FA
:1038B000AA1FBB1FA617B70710F0A61BB70B881FC0
:1038C000991F5A95A9F780959095BC01CD0108954F
:1038D0002F923F924F925F926F927F928F929F9220
:1038E000AF92BF92CF92DF92EF92FF920F931F930E
:1038F000CF93DF93CDB7DEB7CA1BDB0B0FB6F894BF
:10390000DEBF0FBECDBF09942A88398848885F84FE
:103910006E847D848C849B84AA84B984C884DF806F
:10392000EE80FD800C811B81AA81B981CE0FD11D53
:103930000FB6F894DEBF0FBECDBFED010895EE0FB8
:10394000FF1F0590F491E02D0994FB01DC0104C0F8
:103950008D910190801921F441505040C8F7881B87
:10396000990B0895FB01DC0102C001900D924150BA
:103970005040D8F70895F999FECF92BD81BDF89ACD
:10398000992780B50895A8E1B0E042E050E00C949A
:10399000FF1CDC01A40FB51F4150504048F0CB0183
:1039A000840F951F2E910E94DA1C41505040D0F791
:1039B0000895262FF999FECF92BD81BDF89A0197FF
:1039C00000B4021639F01FBA20BD0FB6F894FA9A67
:1039D000F99A0FBE08950396272F0E94DA1C0E94C1
:1039E000D91C252F0E94DA1C242F0C94DA1C019676
:1039F000272F0E94DA1C0C94D91CDC01CB01FC019E
:103A0000F999FECF06C0F2BDE1BDF89A319600B437
:103A10000D9241505040B8F70895F894FFCF08092F
:103A20002E0934092E0934098709A9093409920A93
:103A30009F0A2D0D310D0F0D290D350D390D3D0D41
:103A4000A10D090EA90D730D770DAD0D7B0DB10DF7
:103A5000BD0D870D020E8B0DC10D8F0DC50DEA0D2D
:103A6000930DC90DF10D990DCF0DD70D7F0DB50D2E
:103A7000830DB90D9D0DD30DE10DFA0D000E6D0DE9
:043A8000A50D100E72
:103A84000000010001660564079705980599050083
:103A940021007F220003000000010000000000005C
:103AA4000005010000000406000000000000669705
:103AB400C63435F6F73133323600081018181008BA
:043AC40000C8030033
:00000001FF
