:100000000C94D3050C94F0050C94F0050C94AC29D9
:100010000C94F0050C94F0050C94F0050C94F0058C
:100020000C94F0050C94F0050C9462260C944A276D
:100030000C9438160C94F0050C94F0050C94F00513
:100040000C94F0050C94F0050C94F0050C94F0055C
:100050000C94F0050C943E260C94F0050C94F005DD
:100060000C94F0050C94F0050C94F0050C94F0053C
:100070000C94F0050C94F0050C94F0050C94F0052C
:100080000C94F0050C94F0050C94F0050C94F0051C
:100090000C94F0050C94F0050C94F0050C94F0050C
:1000A0000C94F0050C94F0050C94F00500AF00AE34
:1000B0000000000000003E5B4F5B3E003E6B4F6B5C
:1000C0003E001C3E7C3E1C00183C7E3C18001C5729
:1000D0007D571C001C5E7F5E1C0000183C18000051
:1000E000FFE7C3E7FF00001824180000FFE7DBE785
:1000F000FF0030483A060E00262979292600407F65
:1001000005050700407F05253F005A3CE73C5A00A3
:100110007F3E1C1C0800081C1C3E7F0014227F220E
:1001200014005F5F005F5F0006097F017F000066CB
:1001300089956A0060606060600094A2FFA29400EC
:1001400008047E04080010207E20100008082A1CE5
:100150000800081C2A0808001E10101010000C1EB1
:100160000C1E0C0030383E383000060E3E0E0600E5
:1001700000000000000000005F0000000007000712
:100180000000147F147F1400242A7F2A12002313F6
:10019000086462003649562050000008070300003A
:1001A000001C224100000041221C00002A1C7F1C70
:1001B0002A0008083E080800008070300000080887
:1001C0000808080000006060000020100804020019
:1001D0003E5149453E0000427F4000007249494976
:1001E00046002141494D33001814127F1000274565
:1001F000454539003C4A4949310041211109070070
:10020000364949493600464949291E000000140074
:1002100000000040340000000008142241001414C3
:1002200014141400004122140800020159090600A8
:100230003E415D594E007C1211127C007F494949B4
:1002400036003E41414122007F4141413E007F490D
:10025000494941007F09090901003E4141517300AC
:100260007F0808087F0000417F4100002040413F97
:1002700001007F08142241007F40404040007F027F
:100280001C027F007F0408107F003E4141413E0078
:100290007F09090906003E4151215E007F091929A5
:1002A000460026494949320003017F0103003F40CF
:1002B00040403F001F2040201F003F4038403F008B
:1002C0006314081463000304780403006159494D62
:1002D0004300007F4141410002040810200000411A
:1002E00041417F00040201020400404040404000C0
:1002F0000003070800002054547840007F2844443D
:100300003800384444442800384444287F00385496
:100310005454180000087E0902001824241C780098
:100320007F080404780000447D4000002040403DE8
:1003300000007F102844000000417F4000007C0442
:10034000780478007C080404780038444444380079
:100350007C1824241800182424187C007C08040429
:10036000080048545454240004043F4424003C40F2
:1003700040207C001C2040201C003C4030403C00C1
:100380004428102844004C9090907C004464544CC5
:1003900044000008364100000000770000000041E2
:1003A000360800000201020402003C2623263C001D
:1003B000000000000080808080000000000080E0DD
:1003C00070180C1830E080000010F8901030783071
:1003D00010B8FC3810000000000000F8FCF8000025
:1003E00000000000000000000000001C9C1C000039
:1003F0000000F8FCF80000000000001CFCF8C00041
:10040000000000000080E0F87C1C000000F0FCFC14
:10041000FC1C1C1C1C1C1C1C1C000000000000C040
:10042000F0F8381C1C1C1C1C1C3CF8F0E000E0F030
:10043000F0F0E0ECEEF7F37020007C7C7C7E007E38
:100440007E7E7F7F7F000080C0E07E5B4F5BFEC0D2
:100450000000C000DCD7DEDEDED7DC00C00000001C
:10046000000000000000000000000000000000008C
:1004700000000000000FBCE0818181838382870C33
:10048000183060C000001FFE90B9FFBB91983C1867
:1004900011133F1100000000000000FFFFFF0000EB
:1004A0000000000000000000000000FFFFFF00004F
:1004B0000000FFFFFF0000000000000000030F7FAE
:1004C000F8E080F0FC3F0F0100000000003F3F3FDC
:1004D0001C1C1C1C1C3C78F8F0E08000000000C3D1
:1004E000E7FF7E3C3878787070F8FFDF87000F1FD9
:1004F0003F7F7F7F7F7F3F1E0C001F1F1F3F003FFE
:100500003F3F7F7F7F00307B7F7830202030787FB7
:100510003B0003000F7F0F0F0F7F0F000300000051
:1005200000000000000000000000000000000000CB
:10053000183C24666341C18180808080808081C1B5
:100540004162386C4CC68181808080808081C1434B
:1005500062361C1800000000000000FFFFFFC0C052
:10056000C0C0C0C0C0C0C0800000007FFF7F0000CE
:1005700000007FFFFFC080000000E0E0C0C0C0E0DE
:10058000F97F1F0700000000000000000070F0E08D
:10059000E0C0C0C0C0E0F0F87F3F0F0000000F3F98
:1005A0007FF9E0E0C0C0C0C0C0E0F97F3F1F00009D
:1005B000000000000000000000000000000000003B
:1005C000000000000000000000000000000000002B
:1005D000000000000000000000000000000000001B
:1005E000000000000000000000000000000000000B
:1005F00005010980A101850319012AB7001501260B
:10060000B700950175108100C0050C0901A1018595
:100610000419012AA002150126A002950175108176
:1006200000C005010906A101050719E029E7150029
:10063000250195087501810295017508810105075D
:10064000190029FF150026FF009506750881000591
:1006500008190129051500250195057501910295D7
:100660000175039101C009023B00020100A0FA09D3
:1006700004000001030101000921110100012244CD
:1006800000070581030800010904010001030000BF
:100690000009211101000122320007058203200018
:1006A000011201000200000008D8042DEB00010136
:1006B0000200010E034C0069006C0079003500381F
:1006C00000000010036C0069006C00690075006D8B
:1006D0000073000000040309042223252628292A88
:1006E0002C2D2F3032333536383A3B3D3E40424395
:1006F0004547494A4C4E5051535557595A5C5E60D4
:1007000062646668696B6D6F71737577797B7D7FE5
:1007100081838587898A8C8E90929496989A9C9EE4
:100720009FA1A3A5A7A8AAACAEAFB1B3B4B6B8B900
:10073000BBBCBEBFC1C2C3C5C6C7C9CACBCCCDCE68
:10074000D0D1D2D2D3D4D5D6D7D7D8D9D9DADADB4B
:10075000DBDBDCDCDCDCDCDDDDDDDDDCDCDCDCDCD7
:10076000DBDBDBDADAD9D9D8D7D7D6D5D4D3D2D216
:10077000D1D0CECDCCCBCAC9C7C6C5C3C2C1BFBEFE
:10078000BCBBB9B8B6B4B3B1AFAEACAAA8A7A5A369
:10079000A19F9E9C9A98969492908E8C8A89878528
:1007A00083817F7D7B79777573716F6D6B69686607
:1007B0006462605E5C5A5957555351504E4C4A49D9
:1007C00047454342403E3D3B3A3836353332302F81
:1007D0002D2C2A29282625232200010101010101AF
:1007E00001010102020202020202020203030303E8
:1007F00003030303040404040404040505050505B8
:100800000606060606070707070708080808090975
:1008100009090A0A0A0B0B0B0C0C0C0D0D0D0E0E20
:100820000E0F0F0F101011111112121313141415B3
:100830001516161717181819191A1A1B1B1C1D1D27
:100840001E1E1F202021222223242425262627287D
:1008500029292A2B2C2D2D2E2F30313232333435AD
:10086000363738393A3B3C3D3E3F404142434445B0
:10087000464748494A4C4D4E4F505153545556588F
:10088000595A5B5D5E5F616264656668696B6C6D39
:100890006F7072737577787A7B7D7E8082838587AF
:1008A000888A8C8E8F91939596989A9C9EA0A2A3ED
:1008B000A5A7A9ABADAFB1B3B5B7BABCBEC0C2C4F2
:1008C000C6C9CBCDCFD1D4D6D8DBDDDFE2E4E7E9B2
:1008D000EBEEF0F3F5F8FAFDFF00DA02819CD9F1B6
:1008E000DB20A4A62EAF00A0C0D30000A1C8D30077
:1008F00000AED580A81F408D1420007F3F1F6432BA
:1009000014783C1E1E140A0500C0F0F87F1F1F0E4D
:100910001E1C7CF8F0C000000000000000000080F9
:100920008080808000000000000307E7FEFE3E009C
:100930000000000F1F1F3C387870F0E0C0FEFFFF82
:10094000830303E7FFFF1C00000000030F1FFEFCF2
:10095000F08000000000000000000003FFFFFF0720
:100960001F3E7CF0E1C000000000000000F8FFFF27
:10097000CFE1E0E0E0E0E0E0E0E0E0F0FFFFDFC05A
:10098000E0E0F07F7F1F0000202020200053435232
:100990002000202020200043415020002020202043
:1009A000004E554D200029001E001F002000210090
:1009B00022002B0014001A00080015001700E100A7
:1009C00004001600070009000A00E0001D001B00DB
:1009D0000600190005000000E300E2004C002C00B6
:1009E00021522D002700260025002400230030007E
:1009F000130012000C0018001C0031002E000F0024
:100A00000E000D000B00E500380037003600100026
:100A1000110000006352E6002A002800225235002F
:100A20001E021F022002210222023A003B003C006B
:100A30003D003E003F00E100390046004C004A0006
:100A40004B00E0004700480049004D004E00000008
:100A5000E300E2004C002C00215264002702260231
:100A600025022402230245004400430042004100C5
:100A70004000000000004F00520051005000E5000F
:100A800000000000340033002F0000006352E60035
:100A90002A00280022520000000000000000000090
:100AA0000000000000000000800000000000E100E5
:100AB000AC00AD00AE00AB000000E00000000000A4
:100AC0008100000000000000E300E2004C002C0068
:100AD00021522978277825782378217820782A7858
:100AE0002878267824782278000000000000000092
:100AF000000000000000E500000000000000000011
:100B0000000000006352E6002A002800225229005B
:100B10001E001F002000210022002B0000005200B8
:100B2000000000000000E100500051004F000000F4
:100B30000000E000000000000000000000000000D5
:100B4000E300E2004C002C00635200002700260066
:100B50002500240023000000130012000C001800E0
:100B60001C00000000000F000E000D000B00E5004F
:100B70000000000000001000110000006352E600B9
:100B8000E60028006352556E646566696E65640010
:100B900047616D696E67004D6564696100466E006E
:100BA00042617365000011241FBECFEFDAE0DEBFA3
:100BB000CDBF11E0A0E0B1E0EEEAFEE502C0059095
:100BC0000D92A83FB107D9F725E0A8EFB1E001C029
:100BD0001D92AA3EB207E1F70E942A200C94172F1B
:100BE0000C940000292F30E048E0911102C09C01D4
:100BF00040E0C90164E0969587956A95E1F7009712
:100C000011F04C5F9C01C901969587959695879543
:100C1000009711F04E5F9C01C90196958795840F4E
:100C200008959093A2058093A10508959093E905F6
:100C30008093E805089521E030E002C0220F331FC1
:100C40008A95E2F78091E8059091E905822B932B34
:100C50000E941606089521E030E002C0220F331FE3
:100C60008A95E2F7209530958091E8059091E90505
:100C7000822393230E94160608959A3090F58630B9
:100C800080F5E82FF0E086E0989FE00DF11D11243B
:100C90008E2F877041E001C0440F8A95EAF783E008
:100CA000F695E7958A95E1F7EE0FFF1FEE0FFF1F10
:100CB000E45FFA4F20E030E070E05191DF01CB01BA
:100CC000022E02C0969587950A94E2F7817081956D
:100CD0008527842385278E932F5F3F4F243031054E
:100CE00061F708959A3078F5863068F5E82FF0E0DE
:100CF00086E0989FE00DF11D11249E2F977083E0F0
:100D0000F695E7958A95E1F7EE0FFF1FEE0FFF1FAF
:100D1000E45FFA4F40E050E080E0219130E0092E9E
:100D200002C0369527950A94E2F721703327042EE6
:100D300001C0220F0A94EAF7822B4F5F5F4F4430C5
:100D4000510559F7089580E008958091A805909184
:100D5000A705981301C008958F5F8770FACF90910F
:100D6000A305809589238093A305282F277021113F
:100D70000DC0891759F09091A50592FF07C086957F
:100D8000869586950E942B061092A3050895982FAC
:100D9000909580919E05892380939E0508957A30D1
:100DA000B8F46630A8F48430B0F4E62FF0E096E0B2
:100DB000799FE00DF11D11249CE3899FE00DF11D49
:100DC0001124EE0FFF1FEA55F64F85919591089576
:100DD00080E090E0089581E0FCCF9C01803E910589
:100DE00009F448C0D8F48133910509F47DC048F472
:100DF0008932910509F46DC08A9709F47CC0C90154
:100E000008958933910551F18238910539F1C597DB
:100E1000B1F78091A40585FFF2CF29C0843E9105EA
:100E200009F447C048F4823E910599F1833E91054B
:100E3000A9F121EE30E0E3CF863E910509F444C0EC
:100E4000873E9105E1F68091A40583FD61C09091F4
:100E5000A50591FF2BC024EE30E0D1CF8091A405F1
:100E60008370811152C08091A50583FFC8CF29E20C
:100E700030E0C5CF8091A40580FD33C09091A505D9
:100E800090FFBDCF23EE30E084FFB9CF20E030E00B
:100E9000B6CF8091A40582FDF5CFB1CF8091A40596
:100EA00082FD30C09091A50590FD2FC084FFA7CF93
:100EB000EDCF8091A50581FFA2CF8091A40527EEFB
:100EC00030E084FDE3CF9BCF8091A40583FDF7CF75
:100ED00096CF8091A40585FD1EC08091A50583FF56
:100EE0008ECF29E330E08BCF8091A40586FF87CF9A
:100EF0002AE230E084CF8091A40586FF80CF21E3F1
:100F000030E07DCF22EE30E07ACF20EE30E077CFB8
:100F100026EE30E074CF25E330E071CF9091A40548
:100F200092FF10C041E0282F2471243009F040E0E6
:100F300031E0282F2871283009F030E0431711F0F4
:100F40002CE0822793FF10C041E0282F2471243128
:100F500009F040E031E0282F2871283109F030E015
:100F6000431711F02CE082273091A50530FF10C007
:100F700051E0282F2171213009F050E041E0282F65
:100F80002871283009F040E0541711F029E0822739
:100F900031FF10C041E0282F2171213109F040E0DC
:100FA00031E0282F2871283109F030E0431711F083
:100FB00029E0822794FD877E08951F93CF93DF93C6
:100FC0000E94ED06EC01811522E5920708F055C05C
:100FD000811540E5940708F0D1C0803E910520F5C9
:100FE0008D3C910508F0A4C0883A910570F4853ACB
:100FF000910508F09AC081309105D1F10497813AAA
:101000009105B0F1C0E0D0E033C0885A91094B9708
:10101000C8F7C85AD0E0CC0FDD1FC457DE4F099087
:10102000D881C02DD46424C0811550E49507C0F444
:10103000C11580E2D80708F0B7C0C83ED105C0F09E
:10104000CE019A9581159F41E8F68D2F0E948E075B
:10105000182FCE0199270E94ED06EC01D12B08C074
:1010600099270E94ED06CC27DF70C82BD92BD06AB8
:10107000CE01DF91CF911F910895803842E594070A
:10108000C8F5803652E5950708F05BC0C03482E5AC
:10109000D807D0F4C03292E5D90708F04BC08C2FA6
:1010A0008695869520E2829FC0011124C37021E0BD
:1010B00030E0A90102C0440F551FCA95E2F7EA01CA
:1010C000C82BD92BDD68D4CF8C2F86958695877059
:1010D00050E2859FC0011124C37021E030E0A901D6
:1010E00002C0440F551FCA95E2F7EA01C82BD92B5D
:1010F000DC68BECF803C52E5950758F48F71C03A4A
:10110000D245A0F590E0982F8827EC01C46FD06AF3
:10111000AFCF805C9245809708F074CFDC2FCC274E
:10112000CC27DF71C06FD06AA3CFA497D064A0CFC3
:10113000D0659ECFCF71D0E0DC2FCC27C16FD06AB5
:1011400097CF86958695877020E2829FC0011124F3
:10115000C37021E030E0A90102C0440F551FCA95B9
:10116000E2F7EA01C82BD92BDA6882CF0E948E07FA
:10117000C82FD0E0DC2FCC27D0627ACF8F710E94AD
:101180008E0793E0CC0FDD1F9A95E1F7CC27DF7037
:10119000282F30E084FF04C050E1859F9001112486
:1011A000C22BD32BD06964CF8D2F8F710E948E07F5
:1011B000182FCE0199270E94ED06EC01D12BDCCF30
:1011C000A0E0B0E0E6EEF8E00C94E42A8C01E090B8
:1011D000E805F090E9058091A1059091A205E82A23
:1011E000F92ACFE0D0E0CC24C394D12CC6010C2E38
:1011F00002C0880F991F0A94E2F78E219F21892B44
:1012000049F4219798F7B12C8B2DCDB7DEB7E9E0E3
:101210000C94002BBC2EB8018C2F0E94CF060E948C
:10122000DD07019771F3F0CF0F931F93CF93FC016C
:10123000858100811181811591F0611581F0C801CE
:101240000E94E008C82F682FC8010E943D06B8011F
:101250008C2F0E94CF06CF911F910F910895C80146
:101260000E947206C82FF3CFCF93DF93D82FC92FD8
:101270000E94E0086D2F7C2F0E94CF060E94DD07A0
:10128000DF91CF910895FC0184818115A1F08081C7
:1012900091810E943409282F92959F70963099F081
:1012A00060F4925F9F70923030F4203FB1F038F4D8
:1012B00081E0283E38F080E008959A5FF3CF81E026
:1012C000243FC9F7089591E0213F09F090E081E0C3
:1012D000283E08F080E0892B089581E0089580E0A1
:1012E0000895F894E82FE295EF70F0E041A18F7037
:1012F00021E030E0B90102C0660F771F8A95E2F75E
:10130000CB01962F9095942391A392A1892B82A330
:10131000789408950895CF92DF92EF92FF921F93F1
:10132000CF93DF93172FE82FF0E0E752F84F7111BA
:101330000CC0E4918E2F7E2F6E2FDF91CF911F91E5
:10134000FF90EF90DF90CF900895E62EF12CC72EFE
:10135000D12CF491EF2F86E0689F90011124CFEFFC
:10136000D0E0C901BE010E94C72AAB01EE0CFF1CF0
:1013700065E5649FC001659F900D1124E81AF90A84
:101380006E2D660F6E0D7E01EC18FD08FE9DD001DE
:10139000FF9DB00D11248B2F169F70011124EF2C8F
:1013A000FF246E01CE18DF087601FE9D6001FF9DCF
:1013B000D00C11247E01E61AF108B701169F7001C6
:1013C000179FF00C1124EF2CFF24CE19DF09FC9F8E
:1013D0007001FD9FF00C11247F2D43305105C1F0A9
:1013E0002C3F334058F441305105B1F042305105A3
:1013F00009F0A2CFEB2F8F2D7F2F9ECF44305105C8
:1014000071F04630510509F497CF7B2F8D2D94CF85
:101410007D2DEB2F8F2F90CF7F2FED2D8DCFEF2DAB
:101420007B2FF8CFCF93982F762F842FC22F692F41
:101430000E948B09472F282F80910701C81B8C2FF2
:1014400090E00E94710BCF910895809196058430B1
:1014500060F4837084608093960580919905873944
:1014600018F086E98093990508958834B0F3837065
:101470008464F1CFCF938091960580FF04C00E94D1
:10148000D50DCF910895C091090180910A01C81727
:10149000B0F7809107019C2F981B892F20E040E036
:1014A00060E090E00E94710BCF5FEFCF0F931F932E
:1014B000CF93DF93D82F162F042F80919605C091DC
:1014C000090180FD11C0DF91CF911F910F91089507
:1014D000809107019C2F981B892F202F412F6D2F62
:1014E00090E00E94710BCF5F80910A01C81780F3D2
:1014F0000E943A0AE8CF982F762F842F20919605E4
:1015000020FF0CC0473908F086E9692F0E948B093B
:10151000962F672F482F892F0E94560A0895CF9340
:10152000DF93EC01E6E9F5E0438162818C810E9462
:101530007B0A8C818F5F8C83DF91CF910895E3E9E3
:10154000F5E011828281846082830895CF93DF93D6
:10155000EC01EC81F0E0E752F94F4491E6E9F5E067
:10156000628181810E947B0A8C818F5F8C83DF91F5
:10157000CF910895EF92FF921F93CF93DF93EC01E9
:1015800010E0EE24EA94F12C60910B01161770F034
:101590000E943A0A8C819A8190FF21C08F5F8C83D0
:1015A000DF91CF911F91FF90EF9008952091090155
:1015B000210F3327331F40919905473908F046E939
:1015C00070E0C7010E941E2B962F8C8160919805B8
:1015D000199F800D11240E94120A1F5FD5CF8150E0
:1015E000DECF1F93CF93DF93EC018C81811109C073
:1015F00081E08C831092540292E0909301018093D9
:1016000000011091090180910A01181748F110E0BA
:1016100060910B01161788F10E943A0A809100012F
:1016200090915402980F9093540220910101280F39
:1016300020930101121654F420910B012150330B19
:10164000092E001C00089217030634F08195809340
:101650000001813009F41C82DF91CF911F91089520
:1016600080910701912F981B892F20E040E060E0D6
:1016700090E00E94710B1F5FC6CFE12FF0E070E099
:10168000CF010E941E2B20910901820F90915402DC
:10169000092E001C0008E917F005BCF0909101012B
:1016A000092E001C00089E170F067CF0282F30E042
:1016B00040919905473908F046E960919805809175
:1016C00097050E94120A1F5FA3CF90910701891B03
:1016D00020E040E060E090E00E94710BF4CF539A6C
:1016E0000895FC01EE0FFF1FE80FF91FE05DFD4FAD
:1016F00061834083228308958091FE04811559F00F
:10170000E0910205F0910305309729F00190F081F6
:10171000E02D0995089580E00895A3E0B0E0E3E9A5
:10172000FBE00C94EB2A9C0180912E0290912F02F9
:1017300082179307A1F030932F0220932E02E0919D
:101740000205F0910305309751F083E089833B83D4
:101750002A830084F185E02DCE0101960995239618
:10176000E2E00C94072BA3E0B0E0E9EBFBE00C9483
:10177000EB2A9C0180912C0290912D0282179307F5
:10178000A1F030932D0220932C02E0910205F091FC
:101790000305309751F084E089833B832A830084DA
:1017A000F185E02DCE01019609952396E2E00C9497
:1017B000072B9C01FC0132968FEF90E04191461778
:1017C00051F08F3F19F4411101C0892F9F5F96306E
:1017D000A9F78F3F09F40895280F311D87FD3A9529
:1017E000F901628308959C01FC013296285F3F4F06
:1017F0008191861302C0DF011E92E217F307C1F741
:1018000008958091040108952FB7F89460912802FB
:101810007091290280912A0290912B022FBF089586
:10182000CF92DF92EF92FF928091FE04811559F0E2
:101830000E94040C6B017C01C701B601FF90EF9080
:10184000DF90CF9008950E94040CC090FA04D090CD
:10185000FB04E090FC04F090FD04C60ED71EE81EC9
:10186000F91EEACF0F931F938B019C014FB7F89499
:10187000609128027091290280912A0290912B0296
:101880004FBF601B710B820B930B1F910F9108953B
:1018900008950895FC019B0180911E0290911F0202
:1018A0008617970740F0672B29F48091E8008E7720
:1018B0008093E800C90140E0009741F4411106C05F
:1018C0008091E80082FF2FC080E00895209164029B
:1018D0002115A9F12530A9F12091E80023FD2DC0A3
:1018E0002091E80022FDECCF2091E80020FFE4CF1A
:1018F0003091F3002091F200009719F02830310563
:1019000058F041E02830310509F040E02091E8002E
:101910002E772093E800D0CF41914093F1000197BA
:101920002F5F3F4FE9CF80916402811541F08530F0
:1019300041F08091E80083FFC3CF81E0089582E009
:10194000089583E008958091180287FF13C0809165
:10195000E80082FF06C08091E8008B778093E80062
:101960000895809164028111F2CF089580916402FC
:101970008115D9F38091E80080FFF8CF8091E800CD
:101980008E77ECCF2091E4003091E50095E6A90137
:101990002091EC00822F817020FF06C08091E8002A
:1019A00080FF06C080E008952091E80022FD1AC063
:1019B00080916402811589F0853089F08091EB0077
:1019C00085FD0FC02091E4003091E50042175307D8
:1019D000F9F29A95E1F684E0089582E0089583E0B3
:1019E000089581E00895E8EDF0E080818E7F8083A6
:1019F0001092E2001092DA001092E100A0EEB0E046
:101A00008C9181608C9380818F77808319BCA7ED46
:101A1000B0E08C918E7F8C9380818F7E808310923A
:101A200017020895FC01AC014B5F5F4F8FEF61E33C
:101A30009191892728E030E0982F990F87FF09C0FE
:101A4000892F862721503040B9F7E417F50781F731
:101A50000895892FF7CF982F9093E900891771F097
:101A60007091EC002091ED005091F00021FD09C033
:101A70009F5F973089F78093E9000895762F242F90
:101A800050E03091EB003E7F3093EB003091ED0061
:101A90003D7F3093ED003091EB0031603093EB00EF
:101AA0007093EC002093ED005093F0002091EE0035
:101AB00027FDDECF0895A0E0B0E0E1E6FDE00C9464
:101AC000E52AC8EDD0E088818F7E8883E7EDF0E0DD
:101AD00080818160808384E082BF81E080931702EF
:101AE00088818E7F888302EE10E0F80110821092C8
:101AF000DA0081EEC82ED12CF601108288818F7712
:101B0000888388818068888388818F7D888319BCD9
:101B10001092640210921602109263021092150243
:101B200090EEE92EF12CF70180818B7F80838881F4
:101B30008160888342E060E080E00E942B0DF60126
:101B400080818E7F8083F8018081816080838081A5
:101B500088608083F70180818E7F808388818061A7
:101B60008883CDB7DEB7E8E00C94012BE091A8059F
:101B70009091A70527E0E91302C080E00895AE2FF9
:101B8000B0E02E9FF0011124E755FA4F3181361352
:101B900006C03081381303C03581341304C0FD0101
:101BA0003196E770E8CF81E008953BB1377F2BB1E4
:101BB00028604FB7F89480E392E0FC0101965081D1
:101BC00068E02BB9000000C057FF3BB9550F00007B
:101BD00000C000C000C03BB900C06A9591F752E058
:101BE0008435950751F74FBF8FE594E00197F1F7E2
:101BF00000C0000008950F931F93CF93DF938B01D4
:101C0000EA0190916402943059F58093E9008FEFD6
:101C10009091E80095FD06C095ED9A95F1F70000CA
:101C20008A95B1F78091E80085FF1AC00E94C20C26
:101C3000811111C08091E80085FD06C08091E80007
:101C40008E778093E800F2CFF80181918F01809325
:101C5000F100219779F78091E8008E778093E80072
:101C6000DF91CF911F910F910895CF93DF93D82FDC
:101C7000C92F48E050E0682F792F81E00E94FB0DCA
:101C800088E0ED2FFC2FA0E2B2E001900D928A9542
:101C9000E1F7DF91CF910895BC0143E050E082E08D
:101CA0000E94FB0D0895A0E0B0E0E9E5FEE00C9491
:101CB000E32A182F092FB62EA72E7A0180910C0245
:101CC0009AE0C92ED12C8A3018F0CC24C394D12CA0
:101CD000C1E0D0E06B2D7A2D812F902FF70109956F
:101CE000811116C02196CC16DD0694F0CC9FC00160
:101CF000CD9F900D900D112420E030E045E34A95F2
:101D0000F1F700002F5F3F4F28173907B9F7E2CFEF
:101D1000CDB7DEB7EAE00C94FF2A9091A50592FBBF
:101D2000222720F9281779F080FB92F99093A505D6
:101D30006091A4057091A50584E090E00E94012FB8
:101D400082E00E94AF060895E0EBF2E080E092E0CE
:101D5000DF019C011D9221503040E1F7F0938F028A
:101D6000E0938E028FEF9FEF9093B3048093B204C1
:101D7000089580919E059091A605892B40919F051D
:101D8000411589F090E02CEF31E0F90150812F5F8F
:101D90003F4F51119F5F52E022303507B1F791114B
:101DA00010929F05842B8093FA0148E050E064E094
:101DB00075E08AEF91E00E94E72B892BA9F088E07B
:101DC000EAEFF1E0A4E0B5E001900D928A95E1F729
:101DD000E0910205F0910305309731F00280F38124
:101DE000E02D8AEF91E00995089510929E05ECEFA1
:101DF000F1E086E0DF011D928A95E9F780E090E04E
:101E00000E948D0B80E090E00E94B30B1092A6051B
:101E10000E94B90E08950E94F50E2FEF84E39CE016
:101E2000215080409040E1F700C0000088E19AE036
:101E30000FB6F894A895809360000FBE9093600051
:101E4000FFCFAAE2B0E0E7E2FFE00C94EA2A88E1E3
:101E500092E0FC0101962091F100208322E0803283
:101E60009207B9F780911902893009F45AC0C8F471
:101E7000823009F4B6C0833009F485C0813091F115
:101E80008091E80083FFEAC08091180290911902C6
:101E90009A3008F0E3C0E92FF0E0E75EF04D0C94D3
:101EA000732B8A3009F48CC08B3051F78091180263
:101EB000813231F780911C0290911D02892B01F72C
:101EC0008091E800877F8093E8000E94A30C81E066
:101ED00090911A02911101C080E0809305010E9447
:101EE000F50ECECF80911802813A51F68091E8002C
:101EF000877F8093E80080911C0290911D02892BBE
:101F000061F060E080E090E070E00E944A0C809117
:101F1000E8008B778093E800B3CF68E080E292E03E
:101F2000F3CF80911802813209F0AACF80911C0270
:101F300090911D02029708F0A3CF8091E800877F5F
:101F40008093E8008091E80082FF18C09091F30030
:101F50008091F200029731F48091F100813011F00C
:101F6000863021F48091F100809304018091E80093
:101F70008B778093E8000E94A30C82CF809164024B
:101F80008111E0CF7DCF80911802813A09F078CF9E
:101F900080911C0290911D02892B09F071CF8091D4
:101FA000E800877F8093E8008091E80080FFFCCF05
:101FB000809105018093F1008091E8008E77D9CF60
:101FC00080911802813209F05BCF8091E800877F11
:101FD0008093E8000E94A30C80911B028093030170
:101FE0004FCF80911802813A09F04ACF8091E800E2
:101FF000877F8093E8008091E80080FFFCCF80918C
:102000000301D8CF803889F0823841F580911C02D5
:102010008F70873018F58093E9008091EB0085FB85
:10202000882780F91092E90006C080916302880F2A
:1020300090911502892B9091E800977F9093E8008A
:102040008093F1001092F1008091E8008E7723C018
:10205000811116C080911A02813011F18091E8003F
:1020600083FF0AC08091E800877F8093E800809119
:10207000EB0080628093EB00AA96E3E00C94062BC1
:10208000823061F780911A02811589F01092E9007F
:102090008091E800877F8093E8000E94A30CDECF48
:1020A00081E0933009F080E080936302EFCF80916C
:1020B0001C028F702FEF280F263080F68093E900E6
:1020C0002091EB0020FFE2CF933031F48091EB00C0
:1020D00080628093EB00DACF9091EB009061909357
:1020E000EB0021E030E0A90102C0440F551F8A95A2
:1020F000E2F74093EA001092EA008091EB008860DA
:10210000E8CF8111ABCF10911A021F778091E300C5
:102110008078812B8093E3008091E800877F809313
:10212000E8000E94A30C8091E80080FFFCCF809122
:10213000E30080688093E30083E0111101C082E036
:10214000809364028BCF8058823008F087CF209133
:102150001A0230911B022C3D53E0350799F583E0BC
:102160008A838AE289834FB7F894DE01139620E0D0
:102170003EE051E2E32FF0E050935700849120FFBE
:1021800003C082958F703F5F8F708A30C8F0895C82
:1021900090E08D939D932F5F243161F74FBF809125
:1021A000E800877F8093E8006AE270E0CE01019644
:1021B0000E944A0C8091E8008B778093E8004ECF14
:1021C000805DE6CF832F99278330910529F160F454
:1021D0008130910509F475C0029709F03FCF8BE378
:1021E00090E0E6E6F6E02CC020911C0230911D0242
:1021F0008132910509F459C0829709F02FCF21153A
:10220000310509F468C02130310509F027CF82E398
:1022100090E0E0EFF5E014C0C90199272130A9F161
:1022200082309105D1F1892B09F018CFE5EDF6E068
:10223000E4918E2F90E0E5EDF6E0009709F40ECFE3
:102240002091E800277F2093E80020911E02309122
:102250001F028217930708F49C0140E02115310505
:1022600009F03EC041113CC08091E80082FDA2CF40
:1022700080916402811509F49DCF853009F49ACFCD
:102280008091E80083FFF0CF95CFE3ECF6E0E49196
:102290008E2F90E0E3ECF6E0D0CFE3EBF6E0E491B4
:1022A0008E2F90E0E3EBF6E0C8CF2115310571F0F9
:1022B0002130310509F0D2CE89E090E0E1E9F6E085
:1022C000BFCF82E190E0E1EAF6E0BACF89E090E0AA
:1022D000E8E7F6E0B5CF84E490E0E2E2F6E0B0CFE4
:1022E00080916402811509F465CF853009F462CFCD
:1022F0008091E80083FD5ECF8091E80082FDB4CF3D
:102300008091E80080FFAACF9091F3008091F200C5
:102310002115310519F08830910550F041E00897FA
:1023200009F040E08091E8008E778093E80096CF36
:1023300044914093F1003196215031090196E8CF44
:10234000803809F08BCE8091E800877F8093E80089
:10235000809116028093F10077CE81117FCE10918B
:102360001A02123008F07ACE8091E800877F8093BD
:10237000E800109316020E94A30C1115A9F084E046
:102380008093640242E061EC81E00E942B0D42E206
:1023900061EC82E00E942B0D80916402843051F444
:1023A00082E0809306015ACE8091E30087FDE7CF5B
:1023B00081E0E6CF81E0F5CFCF93C82F8115A9F05A
:1023C0008CEF8C0F813A98F4ECEFF1E082E092E030
:1023D0002191C217B1F18E179F07D1F76C2F8AEFA9
:1023E00091E00E94D90B0E94B90ECF91089580E22E
:1023F0008C0F883068F4C77021E030E001C0220FF4
:10240000CA95EAF780919E05822B80939E05EBCFBB
:102410008BE58C0F833038F42C2F2452330BC901F9
:102420000E948D0BE2CFC85ACB31F8F6EC2FF0E0CA
:10243000EE0FFF1FEE53FE4F808191810E94B30B80
:10244000D4CF6C2F8AEF91E00E94F30B0E94B90E5B
:10245000C5CF682F811541F18CEF860F813A38F492
:102460008AEF91E00E94F30B0E94B90E089580E27A
:10247000860F883048F4677081E001C0880F6A9544
:10248000EAF70E94C706F0CF8BE5860F833028F469
:1024900080E090E00E948D0B0895685A6B3120F423
:1024A00080E090E00E94B30B0895811539F090917F
:1024B0009E05892B80939E050E94B90E0895811573
:1024C00021F00E94C7060E94B90E0895A4E0B0E072
:1024D000ECE6F2E10C94EA2A6091D2047091D30404
:1024E0008091D4049091D5040E94320C11E064369E
:1024F00071058105910578F10E94100CDC01CB017A
:102500000296A11DB11D89839A83AB83BC83809100
:1025100031019091320181529B4F20913001422F25
:1025200050E0253010F044E050E0BE016F5F7F4F77
:102530000E94F42B82E090E00E94532A182F81150C
:1025400051F00E94040C6093D2047093D3048093E2
:10255000D4049093D504812F2496E3E00C94062BA9
:10256000A0E0B0E0E6EBF2E10C94E32AC82F7B0197
:10257000A42EB22ED32F6801FB016081718182816C
:1025800093810E94320C643671058105910510F427
:10259000A11429F10C2F0C2E000C110B88E0C8029D
:1025A000F0011124E05EFE4F8181928181529B4FA8
:1025B0002081422F50E0C216D10408F4A6016B2DF1
:1025C0007D2F0E94F42BC8010E94532A811541F0EF
:1025D0000E94040CF701608371838283938381E0FE
:1025E000CDB7DEB7EAE00C94FF2A0F931F9341E0CA
:1025F0002091E9043091EA048091E8059091E90581
:102600002817390709F440E002E010E028EE35E031
:102610006EEC74E083E00E94B0128115B1F041E0ED
:102620002091EB043091EC048091A1059091A205DA
:102630002817390709F440E002E010E021EA35E00C
:102640006AEC74E084E00E94B0121F910F9108952B
:10265000ABE0B0E0EEE2F3E10C94E92A28E0E6E931
:10266000F5E0CE010196DC0101900D922A95E1F78B
:1026700030919305209194055091950539872A87CB
:102680005B8741E09C01511101C040E00BE010E08C
:1026900066EC74E085E00E94B012811110929505FD
:1026A0002B96E4E00C94052BA1E0B0E0EAE5F3E121
:1026B0000C94E92A8091C104898341E09091F80447
:1026C000981301C040E001E010E09E012F5F3F4FF2
:1026D00062EC74E086E00E94B0122196E4E00C9473
:1026E000052BA1E0B0E0E7E7F3E10C94E92A809143
:1026F000BC0489832091F90490E041E02817190671
:1027000009F440E001E010E09E012F5F3F4F6DEBC8
:1027100074E087E00E94B0122196E4E00C94052B4F
:10272000A6E0B0E0E6E9F3E10C94E82AF62E072FE4
:1027300080E090E00E94532A182F811509F45CC0B4
:1027400080912301482F50E0811511F041E050E0C5
:10275000609124017091250161527B4FCE01069654
:102760000E94F42B6091DB047091DC048091DD0405
:102770009091DE040E94320C64367105810591054A
:1027800038F480EE94E00E94120D9E818917A1F129
:1027900081E090E00E94532A8115C9F180912B01BC
:1027A000482F50E0863010F045E050E060912C0159
:1027B00070912D0161527B4FCE0101960E94F42B46
:1027C00080EE94E00E94120D9E81891320C00E9429
:1027D000040C6093DB047093DC048093DD0490931D
:1027E000DE0485E0FE013196A6EDB4E001900D9285
:1027F0008A95E1F781E00CC085E0E0EEF4E0DE01CF
:10280000119601900D928A95E1F71111EACF80E0BF
:1028100095E0E6EDF4E0AF2DB02F01900D929A9582
:10282000E1F72696E5E00C94042BA0E0B0E0EBE1A4
:10283000F4E10C94E52A8901D42FC52F6B017C01AA
:102840000E94250AA8016D2F7C2F88E090E00E944D
:10285000F52E98014D2F5C2FB601C70100E20E94B2
:10286000A72B622F83E290E00E94E32ECDB7DEB764
:10287000E8E00C94012B80919A05833018F48F5F67
:1028800080939A052091960530919705409198057F
:102890005091990560919A0570919B0580919C05D6
:1028A00090919D050E941514089580919A058115B7
:1028B00019F0815080939A052091960530919705E3
:1028C000409198055091990560919A0570919B05EA
:1028D00080919C0590919D050E94151408950F9379
:1028E0001F93CF93DF93D82F162FC42F022F8091E1
:1028F000960580FF4CC0309197053D1308C090911C
:102900009805961304C090919905941729F0909119
:102910009505926090939505E82FE695E695F0E091
:10292000EB59FE4F9081909393058C7F843081F416
:102930008C2FC73908F086E96D2F712F0E948B0903
:10294000962F672F482F892F0E94560A3D2F09C0C6
:10295000923019F4C0919905F9CF963011F0993061
:10296000A9F73093970510939805C0939905011521
:1029700071F02091960560919A0570919B05412F09
:102980005C2F80919C0590919D050E941514DF910C
:10299000CF911F910F910895E6E9F5E0818121E043
:1029A00043816281865F0E946F140895E6E9F5E035
:1029B000818121E0438162818A500E946F140895D1
:1029C000E6E9F5E0628121E1620F08F46FEF21E0B2
:1029D000438181810E946F140895E6E9F5E06281E8
:1029E00021E1621B08F460E021E0438181810E94C3
:1029F0006F140895E6E9F5E0438121E1420F08F400
:102A00004FEF21E0628181810E946F140895E6E911
:102A1000F5E0438121E1421B08F440E021E06281BE
:102A200081810E946F140895AB0124E630E0BC015F
:102A300088E70E946F289C0181E0232B09F080E049
:102A400008958091BA04811569F08091BC048115C4
:102A500049F062E070E08EEA90E00E941415811166
:102A60001092BC0408958091BA048115F9F00E9477
:102A7000040CDC01CB018856954CAF4FBF4F8093BF
:102A8000B4049093B504A093B604B093B7048091B6
:102A9000BC0481110BC062E070E08CEA90E00E94FF
:102AA0001415811519F081E08093BC040895CF932B
:102AB000DF93682F81E06A3019F06D3031F480E0E7
:102AC0000E94D715DF91CF91089580918E02909149
:102AD0008F0226E0FC01AFE0B2E001900D922A9552
:102AE000E1F7603E08F458C026E0FC0111922A95F7
:102AF000E9F7C0918E02D0918F0246E050E0BE010E
:102B00008FE092E00E94E72B9E01205B3240892BF0
:102B100041F1C90145E0969587954A95E1F741E075
:102B200050E0BA0102C0660F771F8A95E2F7CB0129
:102B30006091B2047091B304862B972BB9016B5F3F
:102B40007F4FE5E076956795EA95E1F702C0440F7F
:102B5000551F6A95E2F7842B952B9093B3048093CD
:102B6000B2042A5F3F4F40918D02642F70E0C9018B
:102B70000E94C72A481B463010F4240F311D21152E
:102B800072E0370710F020E030E020553D4F3093E1
:102B90008F0220938E0296CFF6E06F9FB001112432
:102BA00060557F4F46E050E00E94D12BA2CFCF93DB
:102BB000382FE0918E02F0918F02E05BF24020917D
:102BC0008D02622F70E0CF010E94C72A281B822F3E
:102BD000311561F066E00E94122BC82FC15010F42D
:102BE000CF91089580E20E945715F8CF8E0F9F2F46
:102BF000911D811522E0920710F080E090E0805551
:102C00009D4F90938F0280938E02EACFCF93DF93F4
:102C1000EC01FE018491811106C081E00E94D7156C
:102C2000DF91CF9108950E9457152196F2CF80E051
:102C30000E94D7158091E8059091E9050E94F20560
:102C4000823081F038F481110AC080EA9BE00E9452
:102C500006160895833049F086E89BE0F8CF8DE9A9
:102C60009BE0F5CF87E99BE0F2CF80E99BE0EFCFD7
:102C70001F921FB61F9211248F939F93AF93BF9300
:102C800080916202811113C08091280290912902E3
:102C9000A0912A02B0912B024196A11DB11D8093F3
:102CA000280290932902A0932A02B0932B02BF918D
:102CB000AF919F918F911F901FBE1F9018952FB7B6
:102CC000F8948091280290912902A0912A02B09153
:102CD0002B022FBF0895CF93DF938091FE048115BF
:102CE00029F00E945F16DF91CF9108950E94100C89
:102CF000EB01862F9D2FF7CF60919605669566951F
:102D000070E041E050E082E091E00E94DA2B892BF4
:102D100019F481E0809394050E946B1690938802C9
:102D2000809387028091950584608093950508952E
:102D30009091960590FF42C0811509F440C0823100
:102D400008F03FC08F73282F220F220F8091960525
:102D50008370282B20939605809195058160809340
:102D60009505611581F03091970540919805509136
:102D7000990560919A0570919B0580919C059091B1
:102D80009D050E941514609196056695669570E004
:102D900041E050E082E091E00E94DA2B892B99F02B
:102DA0000E949F0A81E080938A0220E04091990569
:102DB00060919805809197050E946F14089581E0B5
:102DC000C2CF81E1C0CF0E947C16ECCF80919605E6
:102DD000869586958F5F823108F081E061E00E94E0
:102DE0009816089580919605869586958A9509F49A
:102DF00081E161E00E94981608959C014FB7F89414
:102E00008091280290912902A0912A02B0912B0270
:102E10004FBF821B930B0895FF920F931F93CF9385
:102E2000DF93C62FD42F122F8115A9F0609391053F
:102E30000E945F1690930E0280930D02C77081E08E
:102E400001C0880FCA95EAF70E945512CDB7DEB7C8
:102E5000E5E00C94042B80919105681333C08091B8
:102E60000D0290910E020E94FD168436910550F5D8
:102E700000E20D0FCD17A9F0C770FF24F3948F2D3A
:102E800001C0880FCA95EAF70E945F12083048F423
:102E90008D2F877001C0FF0C8A95EAF78F2D0E9455
:102EA0005512812F0E94DC11812F0E9429120830B7
:102EB00068F6D77081E001C0880FDA95EAF70E94C2
:102EC0005F12C4CFC77081E001C0880FCA95EAF7CE
:102ED000F6CFA0E0B0E0EFE6F7E10C94E52A7C0144
:102EE000FC018481811509F463C061E0C7010E947F
:102EF0001409EC01F7018581811509F471C49E0163
:102F00003A9521153F44C0F59E013327A90144504D
:102F100051094432510528F02B5231092E30310528
:102F200088F4E0919005F0E0EE0FFF1FE45DFA4FAA
:102F3000208131812F3F9FE7390721F02F5F3F4FDD
:102F400031832083109291059E0130572332310541
:102F500008F05CC484E090E00E94CD2E9093A5051B
:102F60008093A405FE01E150F047E232F105E0F55F
:102F7000ED5DF04D0C94732BC11521E0D20708F0E4
:102F800024C49E01C3CF26E241EE61EE0E940C17DD
:102F90008091A3058770811559F0F701858181150E
:102FA00039F08091A50582FF03C082E00E94AF0640
:102FB000CDB7DEB7E8E00C94012B27E245EE65EED5
:102FC000E5CF26E241EE60EEE1CF27E245EE64EE8A
:102FD000DDCF26E241EE62EED9CF27E245EE66EE86
:102FE000D5CF28E241E0EBCF8091A40581608093AA
:102FF000A4056091A4057091A50584E090E00E946D
:10300000012F0E94F50EC4CF8091A50588608093A2
:10301000A505EFCF8091A4058260E9CF8091A4053A
:103020008460E5CF8091A4058860E1CF8091A505FB
:103030008160EDCF8091A5058260E9CF8091A405E4
:103040008061D5CF8091A4058062D1CF8091A40505
:103050008064CDCF0E94F50E8091A4058068C7CF13
:103060008091A4058C60C3CF8091A5058360CFCFEC
:103070008091A4058E7FBBCF8091A505877FC7CFA8
:103080008091A4058D7FB3CF8091A4058B7FAFCFB6
:103090008091A405877FABCF8091A5058E7FB7CFA8
:1030A0008091A5058D7FB3CF8091A4058F7E9FCFA2
:1030B0008091A4058F7D9BCF8091A4058F7B97CFB6
:1030C0000E94F50E8091A4058F7791CF8091A40581
:1030D000837F8DCF8091A5058C7F99CF8091A405AA
:1030E000992782FF939590FB82F990FB83F97FCF1C
:1030F0008091A505982F909590FB80F990FB81F920
:1031000086CF9091A405892F8F7B96FF80646FCF27
:103110000E94F50E9091A405892F97FB87F980589E
:1031200066CF61E08EE090E00E94E32E62CF60E027
:10313000F9CF9091A405892F8F7E94FF806157CF9E
:103140009091A405892F8E7F90FF816050CF909140
:10315000A505892F877F93FF886059CF9272FE0162
:10316000E052F847EB30F10508F061C0EB5BF04D41
:103170000C94732B8091960580FF1EC0282F2E7F04
:1031800020939605309197054091980550919905A7
:1031900060919A0570919B0580919C0590919D0589
:1031A0000E9415140E949F0A80919505816080936A
:1031B00095050E943A0AECCE81608093960561E005
:1031C000869586950E949816E3CE911529F00E9467
:1031D000F216DECE9115D9F30E94E616D9CE9115DE
:1031E00029F00E94D614D4CE9115D9F30E94CC14A4
:1031F000CFCE911529F00E94ED14CACE9115D9F3C6
:103200000E94E014C5CE911529F00E940715C0CE8A
:103210009115D9F30E94FA14BBCE911529F00E94A2
:103220005514B6CE9115D9F30E943B14B1CE9E0130
:10323000205E324520323105A8F481112AC0CF71B9
:1032400081E090E09C0102C0220F331FCA95E2F793
:10325000E901622F83E090E00E94E32ECE010E94FC
:10326000110696CE8115A9F0CA353CE7D30709F4BB
:10327000A9C008F072C0C1309CE7D90709F4A0C00A
:10328000C330ECE7DE0709F495C0C115DC4709F44B
:1032900075C0F701858100811181811509F496C0FF
:1032A000C8010E94E008C82F682FC8010E943D068F
:1032B000B8018C2F0E94CF060E94DD07D82FC92F9E
:1032C000F701C580068102950F708091A305877074
:1032D000811501F1DC2CC114F1F0892F807F80343D
:1032E00061F080E28D0F8830A8F0892F807E8032D7
:1032F00021F4D23078F0011569F08091A50582FFA4
:1033000009C082E00E94AF068091A3058770DD248A
:10331000D3948111D12C8C2F82958F70883009F431
:1033200047C108F077C0843008F055C01C2F1F70CB
:10333000823008F480C0C07FC03211F01295107F37
:10334000D11509F4AEC0D13009F4F7C0C11409F4A5
:1033500001C1011509F4C3C083C0CB352CE7D207E6
:1033600099F18091A505002482FF0394802DCC352E
:10337000DC4709F08ECF0E948D0E8BCF0E94F50E98
:103380008FEF94E3ECE081509040E040E1F700C023
:10339000000087E797E7909301088093000888E191
:1033A0009AE00FB6F894A895809360000FBE9093B2
:1033B0006000FFCF6FEF7FEF80E090E00E94012F71
:1033C0000E940B0F81E0D7CF80E0D5CFC8010E94CB
:1033D0007206C82F6DCF843009F4CDC0D114A9F086
:1033E0008091A30580FD11C0F70115828695869511
:1033F00086950E941B06C7010E9469178091A3054C
:103400008695869586950E942B0660E0C7010E94EE
:103410001409CECD893009F456C18A5F8F7082308D
:10342000E8F6D23F09F060C18C2F8F71C11059C1ED
:103430000E941B06F2C0C03110F01295107FC1141B
:10344000B9F0111569F080E28D0F883010F0D111BC
:1034500009C080919E05812B80939E050E94B90E24
:103460008D2F2FC08091A605812B8093A605F6CFC6
:103470008D2F0E942912111509F4B0CF80E28D0F13
:10348000883010F0D11104C0812F0E94C70606C0F9
:1034900010958091A60581238093A6050E94B90E00
:1034A0009DCF8091A50582FD16C0C11469F011154C
:1034B00039F080919E05812B80939E050E94B90E64
:1034C00080E00E94DC118ACF80E00E942912111551
:1034D00009F484CFD9CFC114A1F0011104C0812F08
:1034E0000E9455127BCF013009F078CF80919F0563
:1034F000912F9823191709F471CF812B80939F0581
:103500006DCF01116BCF812F0E945F1290919F05AB
:10351000812F8923811529F0812F8095892380931C
:103520009F058091A005912F9823911509F456CFFE
:10353000109518231093A00551CFC11421F0063027
:1035400008F04CCFCCCF053008F048CF812F0E9437
:103550005F1244CF0115D1F3D93349F4FFEF27EEC1
:1035600033E0F15020403040E1F700C000008D2FE3
:103570000E94291233CF8C2F8695869583708115F2
:1035800069F0813009F02ACF8D2F9C2F9370C110E4
:1035900002C080E090E00E94B30B20CF8D2F9C2FC3
:1035A0009370C11002C080E090E00E948D0B16CF96
:1035B0008C2F8370811142C0C1102FC04D2F4295B6
:1035C00046954770440F440F2D2F2F7030E0042E86
:1035D00002C0220F331F0A94E2F780E090E0D4FF8C
:1035E00009C08FE090E002C0880F991F4A95E2F76A
:1035F00080959095C695C695C370C230B1F0C33022
:1036000089F04091A1055091A205C13049F0822B6B
:10361000932B842395230E9411060E947C0BDECEFF
:10362000242B352B822B932BF6CF822B932B20919F
:10363000A1053091A20582279327EDCFC11491F106
:10364000C0FFEBCF4D2F429546954770440F440F76
:103650002D2F2F7030E0042E02C0220F331F0A944A
:10366000E2F780E090E0D4FF09C08FE090E002C074
:10367000880F991F4A95E2F780959095C695C69553
:10368000C370C230B9F0C33091F04091E805509159
:10369000E905C13051F0822B932B842395230E949E
:1036A0001606BBCF823070F6B8CF242B352B822B79
:1036B000932BF5CF822B932B2091E8053091E905D0
:1036C00082279327ECCFCF70C11439F08C2F0E9442
:1036D0001B068D2F0E945512A0CF8D2F0E945F12C6
:1036E0008C2F0E942B0699CF70F4D03FC9F0D13FA8
:1036F00091F0C11409F455C0011509F44FC08D2F84
:103700000E94DC118ACFD33F19F1D43F91F79091F9
:10371000A50592FD2BC08C2F8F71C11411F388CE9B
:10372000C114A1F0053008F078CFCF7181E090E0AE
:10373000FC0102C0EE0FFF1FCA95E2F7EF01809176
:10374000E8059091E9058E279D27A9CF0630EBCF9C
:1037500080E090E0C11409F4A2CFCF7181E090E045
:1037600002C0880F991FCA95E2F799CFC11461F082
:103770008C2F8F7192FF5CCE982F990F990F990F14
:1037800093609093A30554CE81E00E94AF0602306F
:1037900008F443CF82E00E94AF063FCF8C2F8F7199
:1037A00047CE011579F0D93349F4FFEF27EE33E026
:1037B000F15020403040E1F700C000008D2F0E9402
:1037C00029122BCF8C2F8F718CCFFE01E851FC4733
:1037D000E730F10508F0B6CBE05BF04D0C94732BAD
:1037E000FE01E851FC47E730F105B0F3C631ECE7E4
:1037F000DE0709F01CCD8091920565E3811101C0BF
:1038000069E28AEF91E00E94F30B16C090919E0549
:10381000C631FCE7DF0709F0A1CC9A7A81E091116B
:1038200001C080E08093920565E3911101C069E2D7
:103830008AEF91E00E94D90B0E94B90EA9CB80912A
:10384000E705803178F48091E605811559F0E09123
:10385000A8052091A7053091E2054091E10557E0C8
:103860002E1301C008956E2F70E05E9FF0011124A9
:10387000DF01A755BA4F14968C911497811561F109
:1038800011968C911197831327C08C91841324C0B7
:1038900015968C91159781111FC012968D919C9150
:1038A000A091E305B091E4058A1B9B0B843691053A
:1038B00098F48091E7058F7080618093E705E1556A
:1038C000FA4F80818F708061808381EE95E00E9445
:1038D00069170E94A5060895FB013196E770C0CFD5
:1038E000ADE0B0E0E6E7FCE10C94E02A8C0186E074
:1038F000F801DE01189601900D928A95E1F7F80122
:10390000F580C48081EE882E85E0982E7090E505C4
:10391000711020C0C114D9F0F11409F40DC1C8010F
:103920000E944309811509F407C187E0F801D40119
:1039300001900D928A95E1F7F1E0CF1206C08091D7
:10394000E1059091E2050E9434090E941F1CFF24AA
:10395000F39454C0E080A280B380D090E6058091BB
:10396000E3059091E4059501281B390BD11409F466
:10397000C6C02436310508F09CC0C11441F39091B3
:10398000E205C1808091E705803108F058C0C91276
:1039900014C09091E1059E1110C0F1104AC08F70C3
:1039A00080618093E70581EE95E00E946917809120
:1039B000E705F8018683F12C21C0F1103AC040E000
:1039C0006C2D8E2D0E94B60D40E06C2D8E2D0E9428
:1039D000B60DF82E8111EFCF888599850E943409A4
:1039E000292F22952F70903470F49F702230A0F010
:1039F0009115B1F0F8019681903190F48F2D2D96AC
:103A0000EDE00C94FC2A2A5F2F70223068F0C80188
:103A10000E946917FD2CF2CF911511F0811571F3F9
:103A2000805E883058F3F3CF803F40F3815F83306E
:103A3000F9CF8091E70581608093E705BCCFC9127B
:103A400013C09091E1059E110FC0F1100DC0868347
:103A5000C8010E94691787E0F801A1EEB5E0019066
:103A60000D928A95E1F773CFC8010E944309811531
:103A700009F462C0F11409F45FC08091E705803257
:103A800078F02091E1053091E2053A832983BC82E8
:103A9000AB827D821E828F83CE0101960E946917C0
:103AA00087E0F801A1EEB5E001900D928A95E1F76B
:103AB0004CCF8091E705803150F481EE95E00E9473
:103AC000691787E0F40111928A95E9F774CFC11460
:103AD00009F43DCF2091E20591812913C5CF909142
:103AE000E1059E11C1CFF110BFCF8683C8010E94AE
:103AF000691787E0F40111928A95E9F728CF2436F7
:103B00003105F8F6C11409F422CFF114A9F090910F
:103B1000E2058181981306C08091E1058E1102C0F3
:103B200087E09BCFC8010E9443098111B9CF8091E2
:103B3000E70581608093E705C8010E94691707CFF8
:103B4000ABE1B0E0E6EAFDE10C94E92A4E8B5F8B35
:103B5000688F798F8A8F192F9B8F91111092A605EC
:103B60001D8A86E0FE017696DE011F9601900D9279
:103B70008A95E1F70A8D011539F00B8B1C8B61E0FA
:103B8000CE010F960E9414090B8B1C8B87E0FE015F
:103B90003F96DE01189601900D928A95E1F7CE01CD
:103BA00008960E94701C811128C02091A7053091B1
:103BB000A80587E0FE013896DE01119601900D926E
:103BC0008A95E1F78C858115C1F0822F90E00196EE
:103BD0008770992738171906D9F097E0929FD0017E
:103BE0001124A755BA4FFE01319601900D929A9576
:103BF000E1F78093A7050E94A50617E08091A8052C
:103C00009091A705891312C06B96E4E00C94052BE4
:103C10000E94F50E1092A7051092A80587E0E1EE2C
:103C2000F5E0DF011D928A95E9F7E7CF189FC00103
:103C3000112487559A4F0E94701C811529F3809199
:103C4000A80590E00196877099278093A805D6CFA4
:103C5000A6E0B0E0EEE2FEE10C94E92A0E945F16D5
:103C60008C0180910005909101058017910779F0F2
:103C700019821A820E945F16BC0149815A8180E034
:103C800090E00E94A01D1093010500930005269668
:103C9000E4E00C94052BA5E1B0E0E1E5FEE10C9435
:103CA000DC2AFE013C968AE0DF011D928A95E9F745
:103CB00087E7E82E81E0F82E8F019CE7692E91E0DE
:103CC000792E2F01AA24A394B12C32E8832E31E05F
:103CD000932EF70181917F018F3F09F43EC0F89444
:103CE000E82FE295EF70F0E021A18F70A50102C0EE
:103CF000440F551F8A95E2F7CA01922F982B91A382
:103D000092A18095892382A3789400C0ECE7F1E02A
:103D100031E0312C21912F3F79F0A22FA295AF7085
:103D2000A05EB0E08C9190E02F7002C095958795D1
:103D30002A95E2F780FF98C080E0382A330F8E166C
:103D40009F0641F7F70182918F3F11F00E947109A0
:103D500050EA5A95F1F7D8013C920F5F1F4F6E144D
:103D60007F0409F0B6CF4AE050E0B20185E592E069
:103D70000E94E72B6C01892B41F08AE0F201A5E556
:103D8000B2E001900D928A95E1F70091600210E097
:103D90000B591D4FC114D10409F468C081E0809310
:103DA0000B020E945F1690930A0280930902809191
:103DB000FE04FE0131967F01811509F4ACC085E057
:103DC000DF011D928A95E9F780910C028A3008F094
:103DD0006FC040E953E1B701C8010E94530E81153D
:103DE00009F487C046E652E1B701C8010E94530EAC
:103DF000811509F47EC045EF52E1B701C8010E9468
:103E0000530E811509F475C048E253E1B701C801AA
:103E10000E94530E811509F46CC044E553E1B701CB
:103E2000C8010E94530E811509F463C041E753E1B4
:103E3000B701C8010E94530E811509F45AC01092AF
:103E40000C0280915F0290E045E050E0B7018B5991
:103E50009D4F0E94E72B21E020930802892BE9F572
:103E60006596E1E10C94F82A832F67CF80910B02CD
:103E7000811509F49CCF8091090290910A020E9459
:103E8000FD16059708F493CF45E050E065E572E034
:103E9000C8010E94E72B892B41F085E0E5E5F2E0BF
:103EA000D80101900D928A95E1F710920B027FCF15
:103EB00080910602909107020E94FD16843F914076
:103EC00008F087CF80910802811551F285E0F70153
:103ED00011928A95E9F710920802A0915F02B0E072
:103EE000AB59BD4F85E0F70101900D928A95E1F73E
:103EF000B7CF80910C028F3F39F40E945F169093E8
:103F0000070280930602DECF8F5F80930C028A3017
:103F100008F497CFF2CF85E0F801A0EEB4E001906D
:103F20000D928A95E1F780EE94E00E94120D809345
:103F3000DF048090E5049090E604A090E704B09040
:103F4000E8048091020290910302A0910402B091D2
:103F5000050288169906AA06BB06B1F080920202F5
:103F600090920302A0920402B09205020E94040CF7
:103F7000861A970AA80AB90A8092FA049092FB045A
:103F8000A092FC04B092FD048091E9049091EA04AF
:103F90009093E9058093E8058091EB049091EC04FF
:103FA0009093A2058093A1058BE0EDEEF4E0D7019C
:103FB00001900D928A95E1F7F090EE04E090EF0405
:103FC000D090F0040091F6041091F7041092F704D9
:103FD000111511F110FF0DC089819091960580FF98
:103FE00026C091609093960560E0869586950E9424
:103FF000981611FF06C020E04D2D6E2D8F2D0E94CA
:104000006F1412FF04C00115F9F00E947C1613FF13
:1040100003C081E080938A028091F8048093C104F8
:104020008091F904811599F00E94331519CF9E7F74
:10403000909396050E949F0A8091950581608093D8
:1040400095050E943A0AD5CF0E949F0AE0CF0E94B0
:10405000211506CFCDB7DEB767970FB6F894DEBF50
:104060000FBECDBF85B7806885BF85B7806885BF27
:1040700084B7877F84BF0FB6F894A89580916000BD
:10408000886180936000109260000FBE80E890E02D
:104090000FB6F89480936100909361000FBE81E0A9
:1040A000809306018FE699E09093F9018093F801DF
:1040B0000E94F30C0E945B0D8091E200846080936B
:1040C000E200789480916402811599F08091E90072
:1040D0001091EC008F70179511271795182B1092DF
:1040E000E9008091E80083FD0E94210F1F7010936A
:1040F000E90082E084BD93E095BD9AEF97BD80937F
:104100006E001092FA041092FB041092FC041092BC
:10411000FD048091D80080618093D8000AE10A955F
:10412000F1F700C08091D900182F117080FD04C0F4
:104130000E94F30C109264021093FE041093FF048B
:1041400010930C01111509F4FBC11092070186E0D0
:10415000809308010E94652980910C0180910C01D7
:1041600090E0811101C095E09093600285E0891B89
:1041700080935F0207E711E0BCE7AB2EB1E0BB2EF6
:10418000D8018D918D018F3F11F00E947109A01609
:10419000B106B1F70CE711E0A2E8AA2EA1E0BA2E11
:1041A000F80181918F018F3F11F00E947109A016D3
:1041B000B106B1F78AE0E5E6F2E0DF01082F1D92D3
:1041C0000A95E9F7E5E5F2E0DF011D928A95E9F746
:1041D00080E090E00E94CD2E853E9E4F09F461C0A4
:1041E00065EE7EEF80E090E00E94012F60E082E0CB
:1041F00090E00E94E32E81E090E09093A2058093EE
:10420000A10561E083E090E00E94E32E60E074E1AC
:1042100084E090E00E94012F60E086E090E00E9440
:10422000E32E60E087E090E00E94E32E40E050E063
:10423000BA0188E090E00E94F52E60E083E290E011
:104240000E94E32E60E08CE090E00E94E32E60E0AC
:104250008DE090E00E94E32E19821A821B821C825C
:104260001D821E821F82188648E050E067E170E0E0
:10427000CE0101960E94D32E40E050E0BA018FE1BA
:1042800090E00E94F52E40E050E0BA018FE090E00F
:104290000E94F52E40E050E0BA0183E190E00E94D8
:1042A000F52E82E090E00E94BF2E80936F0284E0A2
:1042B00090E00E94CD2E9093A5058093A40583E005
:1042C00090E00E94BF2E90E00E94110683E0809350
:1042D000B00480E280938D020E94EA276BE070E0D8
:1042E00080EF98E00E941415811569F18091B00467
:1042F00065E070E081FD2AC18BEE98E00E94141504
:10430000811509F16DE070E089ED98E00E941415C7
:104310008115C9F00E94040CDC01CB018856954C34
:10432000AF4FBF4F8093B4049093B504A093B604ED
:10433000B093B7040E94A40E81E08093BA048093E6
:10434000BC041092B1048091610281118DC088E09B
:1043500090E00E94C72E69877A878B879C8783E2CB
:1043600090E00E94BF2E282F30E040E050E060E057
:1043700070E080E090E000E20E948C2BF90109855A
:104380001A852B853C8548015901202F2E2B3F2F64
:1043900039294A295B292093960530939705409344
:1043A00098055093990560939A0570939B058093A7
:1043B0009C0590939D05309195053360309395054C
:1043C000243008F03FC025E0209396051092970511
:1043D0002FEF2093980526E92093990510929A05CE
:1043E00025E030E04FEF56E960E00E94151488E0C8
:1043F00090E00E94C72E2B013C0183E290E00E94D6
:10440000BF2E282F30E040E050E060E070E080E018
:1044100090E000E20E948C2B5301420124293929AB
:104420004A295B2920939605309397054093980578
:104430005093990560939A0570939B0580939C0512
:1044400090939D050E94250A0E949F0A0E946F0B6F
:104450008091960580FF05C060E0869586950E9454
:10446000981681E0809361028091FE04811102C060
:104470000E9468298DE091E09093030580930205E6
:1044800088248394912C9E012F5F3F4F19018091C6
:10449000640210E400E1E2E1FE2E853009F48DC0F3
:1044A0000E944B1E60E7E62E62E0F62E75E6C72EF0
:1044B00072E0D72ED601F70191918D9102E0EA3793
:1044C000F00709F484C09817B9F36090FE0410E077
:1044D000D6010D916D01F70171907F01701641F1C8
:1044E0007026B12CAA24A3948A2D87218115C1F0AE
:1044F0006114B1F0B9821A830E945F169C838B838A
:10450000F1E0FD8391E08A2D8023811101C090E0CC
:104510009E8349815A816B817C818D810E94A01D7F
:10452000B394AA0C56E0552EB510DECFF7010293D6
:104530001F5F1A3069F60E94100C01E009874CC019
:1045400086E0809307018093080106CE86EE98E00E
:10455000D5CE80916402843029F10E9421151092F9
:10456000620288E190E00FB6F894A895809360000D
:104570000FBE1093600083B7817F846083BF83B7D1
:10458000816083BF7894889583B78E7F83BF0FB691
:10459000F894A895809160008861809360001092E3
:1045A00060000FBE0E944B1EE5E6F2E08191811192
:1045B0004AC392E0EF36F907C9F78091640285306B
:1045C00009F4C7CF0E94F50E0E947C0B69CF9813A7
:1045D0007CCF0E94281E19868091FE04811509F463
:1045E000D1C040902C0550902D05052C000C66087C
:1045F000770810911701212F30E0ECE2F5E081E01F
:1046000090E03296281739070CF0A0C16091800223
:104610007091810280918202909183020E94320CFB
:104620006D877E878F87988B9201A30177FE04C0E8
:1046300020E030E040E050E0A0E6BAEE0E94792BA6
:104640006B017C018CE291E0189F9001199F300D65
:104650001124032E000C440B550B8D859E85AF85D0
:10466000B889280F391F4A1F5B1FA5E0B0E00E94E0
:10467000792B9B01AC01C701B6010E94322B690165
:104680007A01213F31054105510510F040EFC42E5C
:104690008D859E85AF85B8898D329140A105B10584
:1046A0000CF18091900590E0019662E370E00E9429
:1046B0001E2B80939005880F991FFC01E45DFA4F33
:1046C00011821082113308F010E31F5F109317015D
:1046D0000E94040C60938002709381028093820296
:1046E00090938302F2E04F1651046104710474F454
:1046F0004A9445284628472841F010929005109288
:10470000170110922D0510922C05C12C60917C028E
:1047100070917D0280917E0290917F020E94320C06
:10472000698B7A8B8B8B9C8B89899A89AB89BC89A5
:1047300085369105A105B10584F00E94040C6093B3
:104740007C0270937D0280937E0290937F02809121
:10475000C10480937B02C0927A0210917B02A091E7
:104760007A02A11BBB0B29893A894B895C890E947B
:10477000842B24E630E040E050E00E94542B120FDE
:104780001093C10480919405811509F46AC0809149
:104790009305E0919605E695E695E81BE09389027E
:1047A000823009F0DFC0F0E0EC5FF64FE4910E2FAD
:1047B00010E026EAC22E2AE0D22E80918A028115CC
:1047C00061F010928A020E946B1690938802809387
:1047D000870210928C0210928B020E946B168D8BB6
:1047E0009E8B80918702909188022D893E89281B9B
:1047F000390B2F3F3F47A8F5209186022115C1F0C4
:104800001092860220918402309185024D895E8942
:10481000421B530B4F3F5F4758F4205D3A4830939B
:1048200085022093840220919505286020939505A8
:10483000E0908B02F0908C02800F911F9093880281
:104840008093870287E892E0F601099580918B02B8
:1048500090918C02892B29F4EF2819F0F1E0F09364
:1048600086028091BA04811509F4EDC08091B804E4
:104870009091B9040E94FD16C29708F4C4C00E942A
:104880005F169093B9048093B80480EB92E0909304
:104890008F0280938E028091E8059091E9050E9435
:1048A000F205182F80911801181721F00E94A40E0C
:1048B000109318018091FE04811183C08091C1047E
:1048C000811509F11F928F9380E691E09F938F935A
:1048D0001F9284E08F933F922F920E94FD2BD10173
:1048E0000D900020E9F78D01015011090FB6F894E1
:1048F000DEBF0FBECDBF7101E016F10608F4B3C0F4
:1049000080E00E94D7150E941716A0918E02B091E8
:104910008F02CD01805B9240AD0140535240413047
:10492000E2E05E0710F040E052E02091B2043091E6
:10493000B304F8E0EF2EF9E0FF2E8417950708F492
:1049400098C03093B3042093B2045DC0408151817C
:10495000052E000C660B770B440E551E661E771E47
:1049600001964FCE863059F4F0E0EF5FF64FE491B8
:104970000E2F10E09FE8C92E9AE0D92E1ECF893065
:1049800061F4E695F0E0E250F74FE4910E2F10E06D
:104990008AEBC82E8AE0D82E10CF00ED17E0AAE8E7
:1049A000CA2EA9E0DA2E8F3009F007CFF0E0E550EB
:1049B000F74FE4910E2F10E0B1EFCB2EBAE0DB2ED3
:1049C000FCCE0E9417160E947C0B182F81EA99E0FA
:1049D00010FD02C08CE999E00E94061687E999E073
:1049E00011FD02C082E999E00E9406168DE899E067
:1049F00012FD02C088E899E00E9406168091FE042C
:104A0000811509F45BCF8091B2049091B304892B96
:104A100009F04DC08091BC048115A9F00E94040CDE
:104A20000091B4041091B5042091B6043091B704FC
:104A3000601B710B820B930B6F3F7F4F8F4F9F4714
:104A400010F40E942115598451100E9433150E94C0
:104A50007C0B9091BB04891709F419CD8093BB049A
:104A60000E94040C14CDD7018D917D010E94571531
:104A700043CFF70114916D911617A1F0BD0161505C
:104A80007109FB011083BC01E5E076956795EA9515
:104A9000E1F7840102C0000F111F6A95E2F7B80127
:104AA000202B372B01961FEFE11AF10A46CF809198
:104AB000BA04811509F4AECF8091B1048111AACF57
:104AC0000E9433152091B2043091B30421153105B1
:104AD00009F4A0CF10E0812F90E07401012E02C0F4
:104AE000EE0CFF1C0A94E2F7A70142235323452B47
:104AF00011F41F5FF0CF2091B00420FF91C0912FDF
:104B0000990F990F990F37E0390F80E023E09093C8
:104B10001B0180931E0130931C0120931F0124E68A
:104B200030E047E050E069E171E088E70E9420282A
:104B3000892B09F06FCF20E2129FA00111248091F0
:104B4000B00480FF79C0E0E9F2E080E2DF011D926D
:104B50008A95E9F706E811E082E8C82E81E0D82EB0
:104B600097E0692ED801ED918D01D6016D916D010F
:104B7000640F752F711D60557D4FF0E0E057FD4FBC
:104B800020E030E0462C421A782C022E01C0770C2F
:104B90000A94EAF75B0190E0D5018D915D018721D0
:104BA000A42DA91BA770AF8BB0E0582E0F8801C0B1
:104BB000550C0A94EAF7B195A195B109A770BB27E6
:104BC00001C08695AA95EAF78529A0818A2B808362
:104BD0009F5F983009F72F5F3F4F3196283031059E
:104BE00089F621E00A38120709F0BCCF04E610E08C
:104BF00020E230E040E952E060E488E70E94BA2811
:104C0000892B09F007CFE094F0948091B204909141
:104C1000B3048E219F219093B3048093B204FACE03
:104C20009695879596958795282F912F9295990F10
:104C300090763FE1390F6BCF40555D4F04E610E0B1
:104C400020E230E0D9CF80916302811509F4B5CC20
:104C500009BDF9BC09B400FEFDCF8091D8008F7D5D
:104C60008093D8008091E00082608093E000809182
:104C7000E00081FDFCCF0E94F50E9FCC78941F923E
:104C80001FB61F9211248F939F93AF93BF93809170
:104C9000280290912902A0912A02B0912B0201963C
:104CA000A11DB11D8093280290932902A0932A028E
:104CB000B0932B02BF91AF919F918F911F901FBE18
:104CC0001F9018951F920F920FB60F9211242F93D9
:104CD0003F934F935F936F937F938F939F93AF9384
:104CE000BF93EF93FF938091E10082FF09C0809111
:104CF000E20082FF05C08091E1008B7F8093E1009C
:104D00008091DA0080FF24C08091D80080FF20C00D
:104D10008091DA008E7F8093DA008091D90080FF45
:104D2000A9C080E189BD82E189BD09B400FEFDCF43
:104D300081E08093640280911702811109C00E9472
:104D4000F30C0E945B0D8091E20084608093E2008E
:104D50008091E10080FF1AC08091E20080FF16C0C0
:104D60008091E2008E7F8093E2008091E20080617A
:104D70008093E2008091D80080628093D80019BCB3
:104D800085E08093640283E0809306018091E100D6
:104D900084FF2FC08091E20084FF2BC080E189BD99
:104DA00082E189BD09B400FEFDCF8091D8008F7DDE
:104DB0008093D8008091E1008F7E8093E100809104
:104DC000E2008F7E8093E2008091E2008160809318
:104DD000E20080911602811509F452C084E08093AC
:104DE000640280916402843009F052C082E08093B2
:104DF00006018091E10083FF2CC08091E20083FFD7
:104E000028C08091E100877F8093E10082E0809359
:104E10006402109216028091E1008E7F8093E1007F
:104E20008091E2008E7F8093E2008091E2008061B9
:104E30008093E20042E060E080E00E942B0D8091D0
:104E4000F00088608093F00081E0809306018093F9
:104E50000501FF91EF91BF91AF919F918F917F914C
:104E60006F915F914F913F912F910F900FBE0F90D7
:104E70001F90189519BC109264021092170268CF07
:104E80008091E30087FF02C083E0A9CF81E0A7CF34
:104E900081E0ADCF1F920F920FB60F921124EF92C7
:104EA000FF920F931F932F933F934F935F936F93B3
:104EB0007F938F939F93AF93BF93CF93EF93FF9382
:104EC00009EE10E0F8018081C091EC008F70C79569
:104ED000CC27C795C82B108280EFE82EF12CF70164
:104EE0008081877F808378940E94210FF80110824F
:104EF000F701808188608083CF70F801C083FF91C3
:104F0000EF91CF91BF91AF919F918F917F916F91D1
:104F10005F914F913F912F911F910F91FF90EF90D3
:104F20000F900FBE0F901F901895FF920F931F9335
:104F3000CF93DF93182FEB011092BC0084EA80938B
:104F4000BC000E945F16082FF92E8091BC0087FFDD
:104F500028C08091B900887F883029F08091B900FD
:104F6000887F8031A1F51093BB0084E88093BC005A
:104F70000E945F16182F092F8091BC0087FF1FC069
:104F80002091B900287F80E090E0283199F081E0FD
:104F900090E0203411F480E090E0919581959109A2
:104FA00009C0802F9F2D0E94FD16C817D90768F6EB
:104FB0008EEF9FEFCDB7DEB7E5E00C94042B812F89
:104FC000902F0E94FD16C817D907B0F6F1CF8FEFCA
:104FD0009FEFF0CF1092B9008CE08093B800089555
:104FE0000F931F93CF93DF93EB018093BB0084E873
:104FF0008093BC000E945F16182F092F8091BC007F
:1050000087FF11C02091B900287F81E090E028320D
:1050100011F480E090E0919581959109DF91CF9115
:105020001F910F910895CF3FDC0741F3812F902FFF
:105030000E94FD16C817D90708F78EEF9FEFEECF35
:10504000A0E0B0E0E6E2F8E20C94E02A782EB62E7A
:10505000A72E6A01E9010E945F164C01C431D105F7
:1050600028F1CF3FDC0731F1CE0164E170E00E940E
:10507000C72AF62EE72E6F2D7E2D872D0E949527AD
:105080008C01892BD1F4EB2CFA2CCE0CDF1CEC1408
:10509000FD0419F001151105D1F084E98093BC00DD
:1050A000C801CDB7DEB7EDE00C94FC2AFF24F394E1
:1050B000E12CE1CF85E0F82EFBCFCF3FDC07D9F222
:1050C000C4010E94FD16C817D907A8F6DCCFBE019F
:1050D000F70181917F010E94F0278C01D8CFA0E0D9
:1050E000B0E0E5E7F8E20C94E02A782EB62EA72E81
:1050F0006A0189010E945F164C010431110518F103
:105100000F3F100719F1C80164E170E00E94C72A3F
:10511000EB01BE01872D0E9495277C01892BC1F4EC
:10512000CB2DDA2DCC0EDD1ECC15DD0519F0E114EA
:10513000F104C1F084E98093BC00C701CDB7DEB7AC
:10514000EDE00C94FC2AC1E0D0E0E3CFC5E0FCCF59
:105150000F3F1007F1F2C4010E94FD16081719074E
:10516000C0F6DECFFE018491B8010E94F0277C01D9
:105170002196DACFA0E0B0E0E0ECF8E20C94DF2A70
:10518000682E962E5A01690178010E945F16782ECA
:10519000892E0431110530F10F3F100731F1C8019C
:1051A00064E170E00E94C72A162F072F612F702F2D
:1051B000862D0E949527EC01892BC9F0FFEFEF1691
:1051C000FF06A1F3872D982D0E94FD16E816F9061B
:1051D00068F784E98093BC00CE01CDB7DEB7EEE07E
:1051E0000C94FB2A11E000E0E1CF15E0FCCFB70101
:1051F000892D0E94F027EC018501CA0CDB1C0C15DF
:105200001D0539F3209729F7B701F80181918F0126
:105210000E94F027EC01F3CF8EE14A9B02C08A95F1
:10522000E1F74A9BFECF08955A9880E28A95F1F7FC
:105230005A9A0895FC013BE03A95F1F798E020E096
:1052400080E031E040E14A95F1F7880F4A9B02C0C7
:105250008160232742E04A95F1F7000040E14A953A
:10526000F1F79A9579F790E19A95F1F799B132E0D3
:105270003A95F1F7000040E14A95F1F792FB992742
:1052800090F992272081920F90830895A1E0B0E0D9
:10529000ECE4F9E20C94E72A19828C017C01E60E19
:1052A000F11C0E940C29CE0101960E941A29F801D6
:1052B00081938F01EE15FF05A1F781E0998191118E
:1052C00080E02196E6E00C94032B529A5A9A0895B6
:1052D00052985A9AEA9AE9E6F0E080818F7C8083BE
:1052E00008956150770B91E001C0990F6A95EAF734
:1052F000692F90E021E0611108C0911599F05A9A48
:1053000080E28A95F1F75A980895362F382331159F
:1053100039F05A9A922730E23A95F1F76695EBCF39
:105320005A98F9CF5A98ECCFFF920F931F93CF93CF
:10533000DF93EC018C01060F111DF9900E941429D6
:1053400068E08F2D0E947129C017D107B1F7CDB742
:10535000DEB7E5E00C94042B1F920F920FB60F926C
:1053600011240F931F932F933F934F935F936F934A
:105370007F938F939F93AF93BF93EF93FF93CF93BD
:10538000DF930F92CDB7DEB719820E940C29CE01B0
:1053900001960E941A29082F069506950695982FC2
:1053A00092959570202F2570920F292F2370969536
:1053B0009695920F982797708981892B811509F00E
:1053C0005CC0093008F059C080E18A95F1F75A9A1B
:1053D000529A82E08A95F1F700C05A9888E0089FB7
:1053E00080011124D801A05EBE4F1696ED91FC916C
:1053F00017973097A9F060918A0170918B011496EC
:105400002D913C911597260F371F11968D919C91E8
:105410001297680F791F13964C9113978C910995E9
:10542000F801E05EFE4F6381611551F020918A0121
:1054300030918B0184819581820F931F0E94942962
:105440000E94142980E18A95F1F75A9852985A9A45
:1054500080E18A95F1F7F801E05EFE4F6081611509
:1054600051F020918A0130918B0181819281820FCC
:10547000931F0E9446290E940C290F90DF91CF9123
:10548000FF91EF91BF91AF919F918F917F916F911C
:105490005F914F913F912F911F910F910F900FBEF0
:1054A0000F901F9018950F931F93CF93DF938C014C
:1054B00009970CF064C0F894529A5A9885E08A953E
:1054C000F1F70000C02FC695C570802F8570C80FFA
:1054D0008C2F8370C695C69593E0000F111F9A9587
:1054E000E1F7C80FC8018C2BEC010E94142900C001
:1054F00068E08C2F0E94712990E19A95F1F75298FB
:105500005A9A4A9B35C087E090E04A9933C0F80127
:10551000E05EFE4F6381611561F020918A01309158
:105520008B0184819581820F931F0E9446298115EA
:1055300019F10E940C2980E28A95F1F75A98529A43
:1055400090E19A95F1F7F801E05EFE4F60816115F8
:1055500051F020918A0130918B0181819281820FDB
:10556000931F0E9494290E941429789481E008C016
:1055700000C0C7CF019749F4529A5A9A789480E0B4
:10558000DF91CF911F910F91089500C0BECFAA1B4C
:10559000BB1B51E107C0AA1FBB1FA617B70710F01E
:1055A000A61BB70B881F991F5A95A9F78095909550
:1055B000BC01CD0108952F923F924F925F926F925E
:1055C0007F928F929F92AF92BF92CF92DF92EF9293
:1055D000FF920F931F93CF93DF93CDB7DEB7CA1B14
:1055E000DB0B0FB6F894DEBF0FBECDBF09942A883F
:1055F000398848885F846E847D848C849B84AA84E7
:10560000B984C884DF80EE80FD800C811B81AA8173
:10561000B981CE0FD11D0FB6F894DEBF0FBECDBF3E
:10562000ED010895992778E0880F991F961708F0E3
:10563000961B881F7A95C9F78095089597FB072ECA
:1056400016F4009407D077FD09D00E94C72A07FC02
:1056500005D03EF4909581959F4F08957095619582
:105660007F4F0895A1E21A2EAA1BBB1BFD010DC09E
:10567000AA1FBB1FEE1FFF1FA217B307E407F50702
:1056800020F0A21BB30BE40BF50B661F771F881FDE
:10569000991F1A9469F760957095809590959B0174
:1056A000AC01BD01CF010895052E97FB1EF40094B7
:1056B0000E946B2B57FD07D00E94322B07FC03D0B2
:1056C0004EF40C946B2B50954095309521953F4F9F
:1056D0004F4F5F4F089590958095709561957F4FDE
:1056E0008F4F9F4F0895EE0FFF1F0590F491E02D0F
:1056F00009940E94C22BA59F900DB49F900DA49F6A
:10570000800D911D11240895B7FF0C94792B0E94F0
:10571000792B821B930B0895002E083090F0982F60
:10572000872F762F652F542F432F322F2227085093
:10573000F4CF220F331F441F551F661F771F881F8A
:10574000991F0A95B2F7002D089597FD1094002E29
:10575000083098F00850232F342F452F562F672FED
:10576000782F892F912DF4CF15949795879577955C
:10577000679557954795379527950A95AAF7112468
:10578000002D0895A29FB001B39FC001A39F700D8B
:10579000811D1124911DB29F700D811D1124911D39
:1057A0000895FB01DC0102C005900D92415050406C
:1057B000D8F70895FC014150504030F00190061692
:1057C000D1F73197CF010895882799270895FB01D4
:1057D000DC0104C08D910190801921F441505040AA
:1057E000C8F7881B990B0895FB01DC0102C00190EA
:1057F0000D9241505040D8F70895AEE0B0E0E3E09C
:10580000FCE20C94E92A0D891E8986E08C831A83B8
:1058100009838F89988D813020E8920710F080E00D
:1058200090E801979E838D83AE01455E5F4F698D41
:105830007A8DCE0101960E942F2C4D815E8157FDFD
:105840000AC02F813885421753070CF49A01020FC2
:10585000131FF80110822E96E4E00C94052BABE0A8
:10586000B0E0E5E3FCE20C94DC2A6C017B018A01E8
:10587000FC0117821682838181FFDAC19AE0492EEA
:10588000F6012381F70123FD859123FF81917F019B
:10589000811509F41FC1853239F423FD959123FF49
:1058A00091917F01953229F4B60190E00E94312E4A
:1058B000E7CF30E0612C512C712CF0E27F1640F5DF
:1058C0009B32D9F058F49032D1F09332F1F09E32FD
:1058D00099F576FCFFC0689476F806C09D3291F089
:1058E0009033C1F4689470F8F70123FD959123FF7C
:1058F00091917F019111E1CF29C0689471F868946A
:1059000072F8F2CF689473F8EFCF689474F8ECCF24
:1059100077FC1CC080ED890F8A30C8F676FE05C082
:10592000649C800D1124682EDFCF549C800D1124BF
:10593000582E689475F8D8CF9C3619F4689477F887
:10594000D3CF9C3409F44BC0983671F2892F8F7DE8
:105950008554833008F445C0933609F466C0933704
:1059600009F469C0933509F475C0943619F0993675
:1059700009F09FC0F80177FE95C061917191819106
:1059800091918F01272D2F76722E97FF09C0909548
:105990008095709561957F4F8F4F9F4F689477F8F2
:1059A0002AE030E0AE014F5F5F4F5A010E94612E46
:1059B0008A19A82E76FEC5C0872D8E7FA61408F002
:1059C000BFC074FE12C172FC06C1F72DFE7E7F2E91
:1059D000B62C872D8678811509F4C0C001C131E04D
:1059E00083CF3115F9F0085F1F4F8FE38983882437
:1059F0008394912CAE014F5F5F4F5A01E89477F882
:105A000073FC03C085149104B0F181149104D1F5A5
:105A1000511409F435CFB60180E290E00E94312E96
:105A20005A94F6CF0C5F1F4FE0CFF8018081898335
:105A30000E5F1F4FDCCFF801A190B1908F01662D52
:105A400070E076FC02C06FEF7FEFC5010E94262E4A
:105A50004C01D4CFF801A190B1908F01662D70E078
:105A600076FC02C06FEF7FEFC5010E941B2E4C0138
:105A7000689477F8C5CFB60180E290E00E94312E9D
:105A80005A94C0CFF50177FC859177FE81915F0133
:105A9000B60190E00E94312E51105A94F1E08F1A15
:105AA0009108B3CF61917191072E000C880B990B6F
:105AB00068CF372CE89434F82AE030E0953739F194
:105AC000572D597F352E903799F058F49835A9F015
:105AD0009F36D9F0F601868197812B96E1E10C94EF
